{
  "_format": "hh-sol-artifact-1",
  "contractName": "HyperDAO",
  "sourceName": "contracts/HyperDAO.sol",
  "abi": [
    {
      "inputs": [
        {
          "internalType": "address",
          "name": "_safeMasterCopy",
          "type": "address"
        },
        {
          "internalType": "address",
          "name": "_proxyFactoryMasterCopy",
          "type": "address"
        }
      ],
      "stateMutability": "nonpayable",
      "type": "constructor"
    },
    {
      "anonymous": false,
      "inputs": [
        {
          "indexed": true,
          "internalType": "int256",
          "name": "chatID",
          "type": "int256"
        },
        {
          "indexed": true,
          "internalType": "address",
          "name": "safe",
          "type": "address"
        }
      ],
      "name": "HyperDaoAssembled",
      "type": "event"
    },
    {
      "anonymous": false,
      "inputs": [
        {
          "indexed": false,
          "internalType": "bytes",
          "name": "signature",
          "type": "bytes"
        },
        {
          "indexed": true,
          "internalType": "bytes32",
          "name": "hash",
          "type": "bytes32"
        }
      ],
      "name": "SignatureCreated",
      "type": "event"
    },
    {
      "inputs": [
        {
          "internalType": "bytes32",
          "name": "",
          "type": "bytes32"
        }
      ],
      "name": "approvedSignatures",
      "outputs": [
        {
          "internalType": "bytes32",
          "name": "",
          "type": "bytes32"
        }
      ],
      "stateMutability": "view",
      "type": "function"
    },
    {
      "inputs": [
        {
          "internalType": "int256",
          "name": "chatID",
          "type": "int256"
        },
        {
          "internalType": "address[]",
          "name": "_owners",
          "type": "address[]"
        },
        {
          "internalType": "uint256",
          "name": "_threshold",
          "type": "uint256"
        }
      ],
      "name": "assembleDao",
      "outputs": [],
      "stateMutability": "nonpayable",
      "type": "function"
    },
    {
      "inputs": [
        {
          "internalType": "int256",
          "name": "",
          "type": "int256"
        }
      ],
      "name": "chatToHyperDao",
      "outputs": [
        {
          "internalType": "address",
          "name": "",
          "type": "address"
        }
      ],
      "stateMutability": "view",
      "type": "function"
    },
    {
      "inputs": [
        {
          "internalType": "int256",
          "name": "_chatID",
          "type": "int256"
        },
        {
          "internalType": "address",
          "name": "_to",
          "type": "address"
        },
        {
          "internalType": "uint256",
          "name": "_value",
          "type": "uint256"
        },
        {
          "internalType": "bytes",
          "name": "_data",
          "type": "bytes"
        },
        {
          "internalType": "enum Enum.Operation",
          "name": "_operation",
          "type": "uint8"
        },
        {
          "internalType": "uint256",
          "name": "_safeTxGas",
          "type": "uint256"
        },
        {
          "internalType": "uint256",
          "name": "_baseGas",
          "type": "uint256"
        },
        {
          "internalType": "uint256",
          "name": "_gasPrice",
          "type": "uint256"
        },
        {
          "internalType": "uint256",
          "name": "_nonce",
          "type": "uint256"
        }
      ],
      "name": "generateSignature",
      "outputs": [
        {
          "internalType": "bytes",
          "name": "signature",
          "type": "bytes"
        },
        {
          "internalType": "bytes32",
          "name": "hash",
          "type": "bytes32"
        }
      ],
      "stateMutability": "nonpayable",
      "type": "function"
    },
    {
      "inputs": [
        {
          "internalType": "bytes",
          "name": "_data",
          "type": "bytes"
        },
        {
          "internalType": "bytes",
          "name": "_signature",
          "type": "bytes"
        }
      ],
      "name": "isValidSignature",
      "outputs": [
        {
          "internalType": "bytes4",
          "name": "",
          "type": "bytes4"
        }
      ],
      "stateMutability": "view",
      "type": "function"
    },
    {
      "inputs": [
        {
          "internalType": "address",
          "name": "_safe",
          "type": "address"
        },
        {
          "internalType": "int256",
          "name": "_chatID",
          "type": "int256"
        }
      ],
      "name": "setSafe",
      "outputs": [],
      "stateMutability": "nonpayable",
      "type": "function"
    }
  ],
  "bytecode": "0x608060405234801561001057600080fd5b50604051610dcc380380610dcc83398101604081905261002f9161007c565b600080546001600160a01b039384166001600160a01b031991821617909155600180549290931691161790556100af565b80516001600160a01b038116811461007757600080fd5b919050565b6000806040838503121561008f57600080fd5b61009883610060565b91506100a660208401610060565b90509250929050565b610d0e806100be6000396000f3fe608060405234801561001057600080fd5b50600436106100625760003560e01c80630b75495c1461006757806320c13b0b1461007c5780636b23ea78146100ad578063c61abba2146100ee578063e0b683ea14610101578063e14ff99814610122575b600080fd5b61007a61007536600461070b565b610150565b005b61008f61008a3660046107ee565b61024f565b6040516001600160e01b031990911681526020015b60405180910390f35b6100d66100bb366004610852565b6002602052600090815260409020546001600160a01b031681565b6040516001600160a01b0390911681526020016100a4565b61007a6100fc36600461086b565b6102da565b61011461010f366004610945565b610343565b6040516100a4929190610a72565b610142610130366004610852565b60036020526000908152604090205481565b6040519081526020016100a4565b6000818152600260205260409020546001600160a01b031633146101bb5760405162461bcd60e51b815260206004820152601f60248201527f5369676e65723a206f6e6c7920736166652066756e6374696f6e616c6974790060448201526064015b60405180910390fd5b6001600160a01b0382166102215760405162461bcd60e51b815260206004820152602760248201527f5369676e65723a206e657720736166652063616e6e6f74206265207a65726f206044820152666164647265737360c81b60648201526084016101b2565b600090815260026020526040902080546001600160a01b0319166001600160a01b0392909216919091179055565b600082516020141561029557602083810151835184830120600082815260039093526040909220549091141561028f57506320c13b0b60e01b90506102d4565b506102cc565b818051906020012060036000858051906020012081526020019081526020016000205414156102cc57506320c13b0b60e01b6102d4565b5061060f60f31b5b92915050565b60006102e7838386610612565b60008581526002602052604080822080546001600160a01b0319166001600160a01b03851690811790915590519293509186917ff1bb5d022d6a042832d2f8f58dca58751c185016ed8ec908ad62478ddab0042591a350505050565b6060600080600260008e815260200190815260200160002060009054906101000a90046001600160a01b03169050806001600160a01b031663d8d11f788d60008d8d8d8d8d8d6000808f6040518c63ffffffff1660e01b81526004016103b39b9a99989796959493929190610a94565b60206040518083038186803b1580156103cb57600080fd5b505afa1580156103df573d6000803e3d6000fd5b505050506040513d601f19601f820116820180604052508101906104039190610b45565b604080516000602082018190526bffffffffffffffffffffffff193060601b16602c830152929450016040516020818303038152906040529050600061050684604080517fa1a7ad659422d5fc08fdc481fd7d8af8daf7993bc4e833452b0268ceaab66e5d602080830191909152818301939093528151808203830181526060820183528051908401207f7a9f5b2bf4dbb53eb85e012c6094a3d71d76e5bfe821f44ab63ed59311264e35608083015260a0808301919091528251808303909101815260c0820183528051930192909220601960f81b60e0840152602360f81b60e184015260e28084019190915281518084039091018152610102909201905290565b905080805190602001206003600086815260200190815260200160002054141561057d5760405162461bcd60e51b815260206004820152602260248201527f5369676e65723a207472616e73616374696f6e20616c7265616479207369676e604482015261195960f21b60648201526084016101b2565b80516040516105989184916041916000918690602001610b5e565b604051602081830303815290604052945080805190602001206003600086815260200190815260200160002081905550837f4418bf19096bdd1b926a95d3cba8654e780b1b8b9a68526fb2faa0de58040d85866040516105f89190610bac565b60405180910390a25050509a509a98505050505050505050565b600080848460008060008060006040516024016106359796959493929190610bc6565b60408051601f198184030181529181526020820180516001600160e01b031663b63e800d60e01b1790526001546000549151631688f0b960e01b81529293506001600160a01b0390811692631688f0b99261069892169085908890600401610c87565b602060405180830381600087803b1580156106b257600080fd5b505af11580156106c6573d6000803e3d6000fd5b505050506040513d601f19601f820116820180604052508101906106ea9190610cbb565b95945050505050565b6001600160a01b038116811461070857600080fd5b50565b6000806040838503121561071e57600080fd5b8235610729816106f3565b946020939093013593505050565b634e487b7160e01b600052604160045260246000fd5b604051601f8201601f1916810167ffffffffffffffff8111828210171561077657610776610737565b604052919050565b600082601f83011261078f57600080fd5b813567ffffffffffffffff8111156107a9576107a9610737565b6107bc601f8201601f191660200161074d565b8181528460208386010111156107d157600080fd5b816020850160208301376000918101602001919091529392505050565b6000806040838503121561080157600080fd5b823567ffffffffffffffff8082111561081957600080fd5b6108258683870161077e565b9350602085013591508082111561083b57600080fd5b506108488582860161077e565b9150509250929050565b60006020828403121561086457600080fd5b5035919050565b60008060006060848603121561088057600080fd5b8335925060208085013567ffffffffffffffff808211156108a057600080fd5b818701915087601f8301126108b457600080fd5b8135818111156108c6576108c6610737565b8060051b91506108d784830161074d565b818152918301840191848101908a8411156108f157600080fd5b938501935b8385101561091b578435925061090b836106f3565b82825293850193908501906108f6565b979a979950505050604095909501359450505050565b80356002811061094057600080fd5b919050565b6000806000806000806000806000806101208b8d03121561096557600080fd5b8a35995060208b0135610977816106f3565b985060408b0135975060608b013567ffffffffffffffff8082111561099b57600080fd5b818d0191508d601f8301126109af57600080fd5b8135818111156109be57600080fd5b8e60208285010111156109d057600080fd5b6020830199508098505050506109e860808c01610931565b945060a08b0135935060c08b0135925060e08b013591506101008b013590509295989b9194979a5092959850565b60005b83811015610a31578181015183820152602001610a19565b83811115610a40576000848401525b50505050565b60008151808452610a5e816020860160208601610a16565b601f01601f19169290920160200192915050565b604081526000610a856040830185610a46565b90508260208301529392505050565b6001600160a01b038c168152602081018b905261014060408201819052810189905260006101608a8c828501376000838c01820152601f8b01601f1916830101905060028910610af457634e487b7160e01b600052602160045260246000fd5b8860608301528760808301528660a08301528560c0830152610b2160e08301866001600160a01b03169052565b6001600160a01b039390931661010082015261012001529998505050505050505050565b600060208284031215610b5757600080fd5b5051919050565b60008651610b70818460208b01610a16565b808301905086815260ff60f81b861660208201528460218201528351610b9d816041840160208801610a16565b01604101979650505050505050565b602081526000610bbf6020830184610a46565b9392505050565b6101008082528851908201819052600090610120830190602090818c01845b82811015610c0a5781516001600160a01b031685529383019390830190600101610be5565b50505083018990526001600160a01b038816604084015282810360608401526002815261060f60f31b602082015260408101915050610c5460808301876001600160a01b03169052565b6001600160a01b03851660a083015260ff841660c08301526001600160a01b03831660e083015298975050505050505050565b6001600160a01b0384168152606060208201819052600090610cab90830185610a46565b9050826040830152949350505050565b600060208284031215610ccd57600080fd5b8151610bbf816106f356fea2646970667358221220486fe3de55cbfda1b407be232fdf8b331a7cc30823f40ae9e14a17cfbc08845064736f6c63430008090033",
  "linkReferences": {},
  "deployedLinkReferences": {}
}