{
  "address": "0xb2Ef655802404f0556C239ebBE331e639B87f735",
  "abi": [
    {
      "inputs": [
        {
          "internalType": "address",
          "name": "_safeMasterCopy",
          "type": "address"
        },
        {
          "internalType": "address",
          "name": "_proxyFactoryMasterCopy",
          "type": "address"
        }
      ],
      "stateMutability": "nonpayable",
      "type": "constructor"
    },
    {
      "anonymous": false,
      "inputs": [
        {
          "indexed": true,
          "internalType": "int256",
          "name": "chatID",
          "type": "int256"
        },
        {
          "indexed": true,
          "internalType": "address",
          "name": "safe",
          "type": "address"
        }
      ],
      "name": "HyperDaoAssembled",
      "type": "event"
    },
    {
      "anonymous": false,
      "inputs": [
        {
          "indexed": false,
          "internalType": "bytes",
          "name": "signature",
          "type": "bytes"
        },
        {
          "indexed": true,
          "internalType": "bytes32",
          "name": "hash",
          "type": "bytes32"
        }
      ],
      "name": "SignatureCreated",
      "type": "event"
    },
    {
      "inputs": [
        {
          "internalType": "bytes32",
          "name": "",
          "type": "bytes32"
        }
      ],
      "name": "approvedSignatures",
      "outputs": [
        {
          "internalType": "bytes32",
          "name": "",
          "type": "bytes32"
        }
      ],
      "stateMutability": "view",
      "type": "function"
    },
    {
      "inputs": [
        {
          "internalType": "int256",
          "name": "_chatID",
          "type": "int256"
        },
        {
          "internalType": "address[]",
          "name": "_owners",
          "type": "address[]"
        },
        {
          "internalType": "uint256",
          "name": "_threshold",
          "type": "uint256"
        }
      ],
      "name": "assembleDao",
      "outputs": [],
      "stateMutability": "nonpayable",
      "type": "function"
    },
    {
      "inputs": [
        {
          "internalType": "int256",
          "name": "",
          "type": "int256"
        }
      ],
      "name": "chatToHyperDao",
      "outputs": [
        {
          "internalType": "address",
          "name": "",
          "type": "address"
        }
      ],
      "stateMutability": "view",
      "type": "function"
    },
    {
      "inputs": [
        {
          "internalType": "int256",
          "name": "_chatID",
          "type": "int256"
        },
        {
          "internalType": "address",
          "name": "_to",
          "type": "address"
        },
        {
          "internalType": "bytes32",
          "name": "_transactionHash",
          "type": "bytes32"
        },
        {
          "internalType": "bytes",
          "name": "_data",
          "type": "bytes"
        },
        {
          "internalType": "enum Enum.Operation",
          "name": "_operation",
          "type": "uint8"
        },
        {
          "internalType": "uint256",
          "name": "_safeTxGas",
          "type": "uint256"
        },
        {
          "internalType": "uint256",
          "name": "_baseGas",
          "type": "uint256"
        },
        {
          "internalType": "uint256",
          "name": "_gasPrice",
          "type": "uint256"
        },
        {
          "internalType": "address[]",
          "name": "_gasTokenRefundReceiver",
          "type": "address[]"
        },
        {
          "internalType": "uint256",
          "name": "_nonce",
          "type": "uint256"
        }
      ],
      "name": "generateSignature",
      "outputs": [
        {
          "internalType": "bytes",
          "name": "signature",
          "type": "bytes"
        },
        {
          "internalType": "bytes32",
          "name": "hash",
          "type": "bytes32"
        }
      ],
      "stateMutability": "nonpayable",
      "type": "function"
    },
    {
      "inputs": [
        {
          "internalType": "bytes",
          "name": "_data",
          "type": "bytes"
        },
        {
          "internalType": "bytes",
          "name": "_signature",
          "type": "bytes"
        }
      ],
      "name": "isValidSignature",
      "outputs": [
        {
          "internalType": "bytes4",
          "name": "",
          "type": "bytes4"
        }
      ],
      "stateMutability": "view",
      "type": "function"
    },
    {
      "inputs": [
        {
          "internalType": "address",
          "name": "_safe",
          "type": "address"
        },
        {
          "internalType": "int256",
          "name": "_chatID",
          "type": "int256"
        }
      ],
      "name": "setSafe",
      "outputs": [],
      "stateMutability": "nonpayable",
      "type": "function"
    }
  ],
  "transactionHash": "0x4124aa434e24e0b1eb4f6651a3b8d438b3f8c97966593cd41024062924c2a2b3",
  "args": [
    "0xd9Db270c1B5E3Bd161E8c8503c55cEABeE709552",
    "0xa6B71E26C5e0845f74c812102Ca7114b6a896AB2"
  ],
  "solcInputHash": "da715744bac092ae736f138d591d37e7",
  "bytecode": "0x608060405234801561001057600080fd5b50604051610def380380610def83398101604081905261002f9161007c565b600080546001600160a01b039384166001600160a01b031991821617909155600180549290931691161790556100af565b80516001600160a01b038116811461007757600080fd5b919050565b6000806040838503121561008f57600080fd5b61009883610060565b91506100a660208401610060565b90509250929050565b610d31806100be6000396000f3fe608060405234801561001057600080fd5b50600436106100625760003560e01c80630b75495c1461006757806320c13b0b1461007c5780636b23ea78146100ad578063c61abba2146100ee578063d77718d114610101578063e14ff99814610122575b600080fd5b61007a6100753660046106c7565b610150565b005b61008f61008a3660046107aa565b61024f565b6040516001600160e01b031990911681526020015b60405180910390f35b6100d66100bb36600461080e565b6002602052600090815260409020546001600160a01b031681565b6040516001600160a01b0390911681526020016100a4565b61007a6100fc3660046108b0565b6102da565b61011461010f366004610958565b610343565b6040516100a4929190610a7f565b61014261013036600461080e565b60036020526000908152604090205481565b6040519081526020016100a4565b6000818152600260205260409020546001600160a01b031633146101bb5760405162461bcd60e51b815260206004820152601f60248201527f5369676e65723a206f6e6c7920736166652066756e6374696f6e616c6974790060448201526064015b60405180910390fd5b6001600160a01b0382166102215760405162461bcd60e51b815260206004820152602760248201527f5369676e65723a206e657720736166652063616e6e6f74206265207a65726f206044820152666164647265737360c81b60648201526084016101b2565b600090815260026020526040902080546001600160a01b0319166001600160a01b0392909216919091179055565b600082516020141561029557602083810151835184830120600082815260039093526040909220549091141561028f57506320c13b0b60e01b90506102d4565b506102cc565b818051906020012060036000858051906020012081526020019081526020016000205414156102cc57506320c13b0b60e01b6102d4565b5061060f60f31b5b92915050565b60006102e78383866105be565b60008581526002602052604080822080546001600160a01b0319166001600160a01b03851690811790915590519293509186917ff1bb5d022d6a042832d2f8f58dca58751c185016ed8ec908ad62478ddab0042591a350505050565b60008b815260026020526040812054606091906001600160a01b03168b61043057806001600160a01b031663d8d11f788e60008e8e8e8e8e8e8e60008151811061038f5761038f610aa1565b60200260200101518f6001815181106103aa576103aa610aa1565b60200260200101518f6040518c63ffffffff1660e01b81526004016103d99b9a99989796959493929190610ab7565b60206040518083038186803b1580156103f157600080fd5b505afa158015610405573d6000803e3d6000fd5b505050506040513d601f19601f820116820180604052508101906104299190610b68565b9150610434565b8b91505b604080516000602080830182905230606090811b6bffffffffffffffffffffffff1916602c85015284518085038301815284860186527fa1a7ad659422d5fc08fdc481fd7d8af8daf7993bc4e833452b0268ceaab66e5d9185019190915260808085018890528551808603909101815260a0850186528051908301207f7a9f5b2bf4dbb53eb85e012c6094a3d71d76e5bfe821f44ab63ed59311264e3560c086015260e08086019190915285518086039091018152610100850186528051920191909120601960f81b610120850152602360f81b610121850152610122808501919091528451808503909101815261014284019094528351909392610543928592604192869061016201610b81565b604051602081830303815290604052945080805190602001206003600086815260200190815260200160002081905550837f4418bf19096bdd1b926a95d3cba8654e780b1b8b9a68526fb2faa0de58040d85866040516105a39190610bcf565b60405180910390a25050509b509b9950505050505050505050565b600080848460008060008060006040516024016105e19796959493929190610be9565b60408051601f198184030181529181526020820180516001600160e01b031663b63e800d60e01b1790526001546000549151631688f0b960e01b81529293506001600160a01b0390811692631688f0b99261064492169085908890600401610caa565b602060405180830381600087803b15801561065e57600080fd5b505af1158015610672573d6000803e3d6000fd5b505050506040513d601f19601f820116820180604052508101906106969190610cde565b95945050505050565b6001600160a01b03811681146106b457600080fd5b50565b80356106c28161069f565b919050565b600080604083850312156106da57600080fd5b82356106e58161069f565b946020939093013593505050565b634e487b7160e01b600052604160045260246000fd5b604051601f8201601f1916810167ffffffffffffffff81118282101715610732576107326106f3565b604052919050565b600082601f83011261074b57600080fd5b813567ffffffffffffffff811115610765576107656106f3565b610778601f8201601f1916602001610709565b81815284602083860101111561078d57600080fd5b816020850160208301376000918101602001919091529392505050565b600080604083850312156107bd57600080fd5b823567ffffffffffffffff808211156107d557600080fd5b6107e18683870161073a565b935060208501359150808211156107f757600080fd5b506108048582860161073a565b9150509250929050565b60006020828403121561082057600080fd5b5035919050565b600082601f83011261083857600080fd5b8135602067ffffffffffffffff821115610854576108546106f3565b8160051b610863828201610709565b928352848101820192828101908785111561087d57600080fd5b83870192505b848310156108a55782356108968161069f565b82529183019190830190610883565b979650505050505050565b6000806000606084860312156108c557600080fd5b83359250602084013567ffffffffffffffff8111156108e357600080fd5b6108ef86828701610827565b925050604084013590509250925092565b60008083601f84011261091257600080fd5b50813567ffffffffffffffff81111561092a57600080fd5b60208301915083602082850101111561094257600080fd5b9250929050565b8035600281106106c257600080fd5b60008060008060008060008060008060006101408c8e03121561097a57600080fd5b8b359a5061098a60208d016106b7565b995060408c0135985067ffffffffffffffff8060608e013511156109ad57600080fd5b6109bd8e60608f01358f01610900565b90995097506109ce60808e01610949565b965060a08d0135955060c08d0135945060e08d01359350806101008e013511156109f757600080fd5b50610a098d6101008e01358e01610827565b91506101208c013590509295989b509295989b9093969950565b60005b83811015610a3e578181015183820152602001610a26565b83811115610a4d576000848401525b50505050565b60008151808452610a6b816020860160208601610a23565b601f01601f19169290920160200192915050565b604081526000610a926040830185610a53565b90508260208301529392505050565b634e487b7160e01b600052603260045260246000fd5b6001600160a01b038c168152602081018b905261014060408201819052810189905260006101608a8c828501376000838c01820152601f8b01601f1916830101905060028910610b1757634e487b7160e01b600052602160045260246000fd5b8860608301528760808301528660a08301528560c0830152610b4460e08301866001600160a01b03169052565b6001600160a01b039390931661010082015261012001529998505050505050505050565b600060208284031215610b7a57600080fd5b5051919050565b60008651610b93818460208b01610a23565b808301905086815260ff60f81b861660208201528460218201528351610bc0816041840160208801610a23565b01604101979650505050505050565b602081526000610be26020830184610a53565b9392505050565b6101008082528851908201819052600090610120830190602090818c01845b82811015610c2d5781516001600160a01b031685529383019390830190600101610c08565b50505083018990526001600160a01b038816604084015282810360608401526002815261060f60f31b602082015260408101915050610c7760808301876001600160a01b03169052565b6001600160a01b03851660a083015260ff841660c08301526001600160a01b03831660e083015298975050505050505050565b6001600160a01b0384168152606060208201819052600090610cce90830185610a53565b9050826040830152949350505050565b600060208284031215610cf057600080fd5b8151610be28161069f56fea26469706673582212202f9c37e282e7bfa0138d444a2597da5ee7f4567fbfd2c1d7ca4760ceef36fa4564736f6c63430008090033",
  "devdoc": {
    "details": "Smart contract that enables the creation Gnosis Safe and proposal generation for Hyperdao.",
    "kind": "dev",
    "methods": {
      "assembleDao(int256,address[],uint256)": {
        "details": "AssembleDao",
        "params": {
          "_chatID": "ID of a Telegram chat.",
          "_owners": "Owners of the multisig.",
          "_threshold": "Voting threshold."
        }
      },
      "constructor": {
        "details": "HyperDAO constructor function."
      },
      "generateSignature(int256,address,bytes32,bytes,uint8,uint256,uint256,uint256,address[],uint256)": {
        "details": "Signature generator",
        "params": {
          "_baseGas": "base gas for gnosis safe.",
          "_data": "encoded transaction data.",
          "_gasPrice": "gas price for gnosis safe transaction.",
          "_nonce": "gnosis safe contract nonce.",
          "_operation": "type of operation call.",
          "_safeTxGas": "safe transaction gas for gnosis safe.",
          "_to": "receiver address.",
          "_transactionHash": "transaction hash."
        }
      },
      "isValidSignature(bytes,bytes)": {
        "details": "Validate signature using EIP1271",
        "params": {
          "_data": "Encoded transaction hash supplied to verify signature.",
          "_signature": "Signature that needs to be verified."
        }
      },
      "setSafe(address,int256)": {
        "details": "set new safe",
        "params": {
          "_safe": "safe address"
        }
      }
    },
    "title": "HyperDao contract",
    "version": 1
  },
  "userdoc": {
    "kind": "user",
    "methods": {},
    "version": 1
  },
  "storageLayout": {
    "storage": [
      {
        "astId": 2586,
        "contract": "contracts/HyperDAO.sol:HyperDAO",
        "label": "safeMasterCopy",
        "offset": 0,
        "slot": "0",
        "type": "t_address"
      },
      {
        "astId": 2588,
        "contract": "contracts/HyperDAO.sol:HyperDAO",
        "label": "proxyFactoryMasterCopy",
        "offset": 0,
        "slot": "1",
        "type": "t_address"
      },
      {
        "astId": 2598,
        "contract": "contracts/HyperDAO.sol:HyperDAO",
        "label": "chatToHyperDao",
        "offset": 0,
        "slot": "2",
        "type": "t_mapping(t_int256,t_address)"
      },
      {
        "astId": 2602,
        "contract": "contracts/HyperDAO.sol:HyperDAO",
        "label": "approvedSignatures",
        "offset": 0,
        "slot": "3",
        "type": "t_mapping(t_bytes32,t_bytes32)"
      }
    ],
    "types": {
      "t_address": {
        "encoding": "inplace",
        "label": "address",
        "numberOfBytes": "20"
      },
      "t_bytes32": {
        "encoding": "inplace",
        "label": "bytes32",
        "numberOfBytes": "32"
      },
      "t_int256": {
        "encoding": "inplace",
        "label": "int256",
        "numberOfBytes": "32"
      },
      "t_mapping(t_bytes32,t_bytes32)": {
        "encoding": "mapping",
        "key": "t_bytes32",
        "label": "mapping(bytes32 => bytes32)",
        "numberOfBytes": "32",
        "value": "t_bytes32"
      },
      "t_mapping(t_int256,t_address)": {
        "encoding": "mapping",
        "key": "t_int256",
        "label": "mapping(int256 => address)",
        "numberOfBytes": "32",
        "value": "t_address"
      }
    }
  }
}