{
  "address": "0xb2E1DDeb48Eb9Edd6AC50D9Daf7c9321BAe4Bd4d",
  "abi": [
    {
      "inputs": [
        {
          "internalType": "address",
          "name": "_safeMasterCopy",
          "type": "address"
        },
        {
          "internalType": "address",
          "name": "_proxyFactoryMasterCopy",
          "type": "address"
        }
      ],
      "stateMutability": "nonpayable",
      "type": "constructor"
    },
    {
      "anonymous": false,
      "inputs": [
        {
          "indexed": true,
          "internalType": "int256",
          "name": "chatID",
          "type": "int256"
        },
        {
          "indexed": true,
          "internalType": "address",
          "name": "safe",
          "type": "address"
        }
      ],
      "name": "HyperDaoAssembled",
      "type": "event"
    },
    {
      "anonymous": false,
      "inputs": [
        {
          "indexed": false,
          "internalType": "bytes",
          "name": "signature",
          "type": "bytes"
        },
        {
          "indexed": true,
          "internalType": "bytes32",
          "name": "hash",
          "type": "bytes32"
        }
      ],
      "name": "SignatureCreated",
      "type": "event"
    },
    {
      "inputs": [
        {
          "internalType": "bytes32",
          "name": "",
          "type": "bytes32"
        }
      ],
      "name": "approvedSignatures",
      "outputs": [
        {
          "internalType": "bytes32",
          "name": "",
          "type": "bytes32"
        }
      ],
      "stateMutability": "view",
      "type": "function"
    },
    {
      "inputs": [
        {
          "internalType": "int256",
          "name": "chatID",
          "type": "int256"
        },
        {
          "internalType": "address[]",
          "name": "_owners",
          "type": "address[]"
        },
        {
          "internalType": "uint256",
          "name": "_threshold",
          "type": "uint256"
        }
      ],
      "name": "assembleDao",
      "outputs": [],
      "stateMutability": "nonpayable",
      "type": "function"
    },
    {
      "inputs": [
        {
          "internalType": "int256",
          "name": "",
          "type": "int256"
        }
      ],
      "name": "chatToHyperDao",
      "outputs": [
        {
          "internalType": "address",
          "name": "",
          "type": "address"
        }
      ],
      "stateMutability": "view",
      "type": "function"
    },
    {
      "inputs": [
        {
          "internalType": "int256",
          "name": "_chatID",
          "type": "int256"
        },
        {
          "internalType": "address",
          "name": "_to",
          "type": "address"
        },
        {
          "internalType": "uint256",
          "name": "_value",
          "type": "uint256"
        },
        {
          "internalType": "bytes",
          "name": "_data",
          "type": "bytes"
        },
        {
          "internalType": "enum Enum.Operation",
          "name": "_operation",
          "type": "uint8"
        },
        {
          "internalType": "uint256",
          "name": "_safeTxGas",
          "type": "uint256"
        },
        {
          "internalType": "uint256",
          "name": "_baseGas",
          "type": "uint256"
        },
        {
          "internalType": "uint256",
          "name": "_gasPrice",
          "type": "uint256"
        },
        {
          "internalType": "uint256",
          "name": "_nonce",
          "type": "uint256"
        }
      ],
      "name": "generateSignature",
      "outputs": [
        {
          "internalType": "bytes",
          "name": "signature",
          "type": "bytes"
        },
        {
          "internalType": "bytes32",
          "name": "hash",
          "type": "bytes32"
        }
      ],
      "stateMutability": "nonpayable",
      "type": "function"
    },
    {
      "inputs": [
        {
          "internalType": "bytes",
          "name": "_data",
          "type": "bytes"
        },
        {
          "internalType": "bytes",
          "name": "_signature",
          "type": "bytes"
        }
      ],
      "name": "isValidSignature",
      "outputs": [
        {
          "internalType": "bytes4",
          "name": "",
          "type": "bytes4"
        }
      ],
      "stateMutability": "view",
      "type": "function"
    }
  ],
  "transactionHash": "0xbb78b8874430c1ccc8791fc9bde6ab10022e1556002f891293673f8e1e1ee61c",
  "args": [
    "0xd9Db270c1B5E3Bd161E8c8503c55cEABeE709552",
    "0xa6B71E26C5e0845f74c812102Ca7114b6a896AB2"
  ],
  "solcInputHash": "3a3181010c1857b1718c6c1ecaf604e4",
  "bytecode": "0x608060405234801561001057600080fd5b50604051610c87380380610c8783398101604081905261002f9161007c565b600080546001600160a01b039384166001600160a01b031991821617909155600180549290931691161790556100af565b80516001600160a01b038116811461007757600080fd5b919050565b6000806040838503121561008f57600080fd5b61009883610060565b91506100a660208401610060565b90509250929050565b610bc9806100be6000396000f3fe608060405234801561001057600080fd5b50600436106100575760003560e01c806320c13b0b1461005c5780636b23ea781461008d578063c61abba2146100ce578063e0b683ea146100e3578063e14ff99814610104575b600080fd5b61006f61006a366004610691565b610132565b6040516001600160e01b031990911681526020015b60405180910390f35b6100b661009b3660046106f5565b6002602052600090815260409020546001600160a01b031681565b6040516001600160a01b039091168152602001610084565b6100e16100dc366004610726565b6101bd565b005b6100f66100f1366004610800565b610226565b60405161008492919061092d565b6101246101123660046106f5565b60036020526000908152604090205481565b604051908152602001610084565b600082516020141561017857602083810151835184830120600082815260039093526040909220549091141561017257506320c13b0b60e01b90506101b7565b506101af565b818051906020012060036000858051906020012081526020019081526020016000205414156101af57506320c13b0b60e01b6101b7565b5061060f60f31b5b92915050565b60006101ca8383866104f9565b60008581526002602052604080822080546001600160a01b0319166001600160a01b03851690811790915590519293509186917ff1bb5d022d6a042832d2f8f58dca58751c185016ed8ec908ad62478ddab0042591a350505050565b6060600080600260008e815260200190815260200160002060009054906101000a90046001600160a01b03169050806001600160a01b031663d8d11f788d60008d8d8d8d8d8d6000808f6040518c63ffffffff1660e01b81526004016102969b9a9998979695949392919061094f565b60206040518083038186803b1580156102ae57600080fd5b505afa1580156102c2573d6000803e3d6000fd5b505050506040513d601f19601f820116820180604052508101906102e69190610a00565b604080516000602082018190526bffffffffffffffffffffffff193060601b16602c83015292945001604051602081830303815290604052905060006103e984604080517fa1a7ad659422d5fc08fdc481fd7d8af8daf7993bc4e833452b0268ceaab66e5d602080830191909152818301939093528151808203830181526060820183528051908401207f7a9f5b2bf4dbb53eb85e012c6094a3d71d76e5bfe821f44ab63ed59311264e35608083015260a0808301919091528251808303909101815260c0820183528051930192909220601960f81b60e0840152602360f81b60e184015260e28084019190915281518084039091018152610102909201905290565b90508080519060200120600360008681526020019081526020016000205414156104645760405162461bcd60e51b815260206004820152602260248201527f5369676e65723a207472616e73616374696f6e20616c7265616479207369676e604482015261195960f21b606482015260840160405180910390fd5b805160405161047f9184916041916000918690602001610a19565b604051602081830303815290604052945080805190602001206003600086815260200190815260200160002081905550837f4418bf19096bdd1b926a95d3cba8654e780b1b8b9a68526fb2faa0de58040d85866040516104df9190610a67565b60405180910390a25050509a509a98505050505050505050565b6000808484600080600080600060405160240161051c9796959493929190610a81565b60408051601f198184030181529181526020820180516001600160e01b031663b63e800d60e01b1790526001546000549151631688f0b960e01b81529293506001600160a01b0390811692631688f0b99261057f92169085908890600401610b42565b602060405180830381600087803b15801561059957600080fd5b505af11580156105ad573d6000803e3d6000fd5b505050506040513d601f19601f820116820180604052508101906105d19190610b76565b95945050505050565b634e487b7160e01b600052604160045260246000fd5b604051601f8201601f1916810167ffffffffffffffff81118282101715610619576106196105da565b604052919050565b600082601f83011261063257600080fd5b813567ffffffffffffffff81111561064c5761064c6105da565b61065f601f8201601f19166020016105f0565b81815284602083860101111561067457600080fd5b816020850160208301376000918101602001919091529392505050565b600080604083850312156106a457600080fd5b823567ffffffffffffffff808211156106bc57600080fd5b6106c886838701610621565b935060208501359150808211156106de57600080fd5b506106eb85828601610621565b9150509250929050565b60006020828403121561070757600080fd5b5035919050565b6001600160a01b038116811461072357600080fd5b50565b60008060006060848603121561073b57600080fd5b8335925060208085013567ffffffffffffffff8082111561075b57600080fd5b818701915087601f83011261076f57600080fd5b813581811115610781576107816105da565b8060051b91506107928483016105f0565b818152918301840191848101908a8411156107ac57600080fd5b938501935b838510156107d657843592506107c68361070e565b82825293850193908501906107b1565b979a979950505050604095909501359450505050565b8035600281106107fb57600080fd5b919050565b6000806000806000806000806000806101208b8d03121561082057600080fd5b8a35995060208b01356108328161070e565b985060408b0135975060608b013567ffffffffffffffff8082111561085657600080fd5b818d0191508d601f83011261086a57600080fd5b81358181111561087957600080fd5b8e602082850101111561088b57600080fd5b6020830199508098505050506108a360808c016107ec565b945060a08b0135935060c08b0135925060e08b013591506101008b013590509295989b9194979a5092959850565b60005b838110156108ec5781810151838201526020016108d4565b838111156108fb576000848401525b50505050565b600081518084526109198160208601602086016108d1565b601f01601f19169290920160200192915050565b6040815260006109406040830185610901565b90508260208301529392505050565b6001600160a01b038c168152602081018b905261014060408201819052810189905260006101608a8c828501376000838c01820152601f8b01601f19168301019050600289106109af57634e487b7160e01b600052602160045260246000fd5b8860608301528760808301528660a08301528560c08301526109dc60e08301866001600160a01b03169052565b6001600160a01b039390931661010082015261012001529998505050505050505050565b600060208284031215610a1257600080fd5b5051919050565b60008651610a2b818460208b016108d1565b808301905086815260ff60f81b861660208201528460218201528351610a588160418401602088016108d1565b01604101979650505050505050565b602081526000610a7a6020830184610901565b9392505050565b6101008082528851908201819052600090610120830190602090818c01845b82811015610ac55781516001600160a01b031685529383019390830190600101610aa0565b50505083018990526001600160a01b038816604084015282810360608401526002815261060f60f31b602082015260408101915050610b0f60808301876001600160a01b03169052565b6001600160a01b03851660a083015260ff841660c08301526001600160a01b03831660e083015298975050505050505050565b6001600160a01b0384168152606060208201819052600090610b6690830185610901565b9050826040830152949350505050565b600060208284031215610b8857600080fd5b8151610a7a8161070e56fea2646970667358221220a929aeb1304be365920d48d65ebc08dc229c83e7805cfe19db4725164ffd66df64736f6c63430008090033",
  "devdoc": {
    "kind": "dev",
    "methods": {
      "constructor": {
        "details": "HyperDAO constructor function."
      },
      "generateSignature(int256,address,uint256,bytes,uint8,uint256,uint256,uint256,uint256)": {
        "details": "Signature generator",
        "params": {
          "_baseGas": "base gas for gnosis safe.",
          "_data": "encoded transaction data.",
          "_gasPrice": "gas price for gnosis safe transaction.",
          "_nonce": "gnosis safe contract nonce.",
          "_operation": "type of operation call.",
          "_safeTxGas": "safe transaction gas for gnosis safe.",
          "_to": "receiver address.",
          "_value": "value in wei."
        }
      },
      "isValidSignature(bytes,bytes)": {
        "details": "Validate signature using EIP1271",
        "params": {
          "_data": "Encoded transaction hash supplied to verify signature.",
          "_signature": "Signature that needs to be verified."
        }
      }
    },
    "version": 1
  },
  "userdoc": {
    "kind": "user",
    "methods": {},
    "version": 1
  },
  "storageLayout": {
    "storage": [
      {
        "astId": 2585,
        "contract": "contracts/HyperDAO.sol:HyperDAO",
        "label": "safeMasterCopy",
        "offset": 0,
        "slot": "0",
        "type": "t_address"
      },
      {
        "astId": 2587,
        "contract": "contracts/HyperDAO.sol:HyperDAO",
        "label": "proxyFactoryMasterCopy",
        "offset": 0,
        "slot": "1",
        "type": "t_address"
      },
      {
        "astId": 2597,
        "contract": "contracts/HyperDAO.sol:HyperDAO",
        "label": "chatToHyperDao",
        "offset": 0,
        "slot": "2",
        "type": "t_mapping(t_int256,t_address)"
      },
      {
        "astId": 2601,
        "contract": "contracts/HyperDAO.sol:HyperDAO",
        "label": "approvedSignatures",
        "offset": 0,
        "slot": "3",
        "type": "t_mapping(t_bytes32,t_bytes32)"
      }
    ],
    "types": {
      "t_address": {
        "encoding": "inplace",
        "label": "address",
        "numberOfBytes": "20"
      },
      "t_bytes32": {
        "encoding": "inplace",
        "label": "bytes32",
        "numberOfBytes": "32"
      },
      "t_int256": {
        "encoding": "inplace",
        "label": "int256",
        "numberOfBytes": "32"
      },
      "t_mapping(t_bytes32,t_bytes32)": {
        "encoding": "mapping",
        "key": "t_bytes32",
        "label": "mapping(bytes32 => bytes32)",
        "numberOfBytes": "32",
        "value": "t_bytes32"
      },
      "t_mapping(t_int256,t_address)": {
        "encoding": "mapping",
        "key": "t_int256",
        "label": "mapping(int256 => address)",
        "numberOfBytes": "32",
        "value": "t_address"
      }
    }
  }
}