{
  "address": "0x36aebabB3fD32589425B1c0170EFfB55C7982575",
  "abi": [
    {
      "inputs": [
        {
          "internalType": "address",
          "name": "_safeMasterCopy",
          "type": "address"
        },
        {
          "internalType": "address",
          "name": "_proxyFactoryMasterCopy",
          "type": "address"
        }
      ],
      "stateMutability": "nonpayable",
      "type": "constructor"
    },
    {
      "anonymous": false,
      "inputs": [
        {
          "indexed": true,
          "internalType": "int256",
          "name": "chatID",
          "type": "int256"
        },
        {
          "indexed": true,
          "internalType": "address",
          "name": "safe",
          "type": "address"
        }
      ],
      "name": "HyperDaoAssembled",
      "type": "event"
    },
    {
      "anonymous": false,
      "inputs": [
        {
          "indexed": false,
          "internalType": "bytes",
          "name": "signature",
          "type": "bytes"
        },
        {
          "indexed": true,
          "internalType": "bytes32",
          "name": "hash",
          "type": "bytes32"
        }
      ],
      "name": "SignatureCreated",
      "type": "event"
    },
    {
      "inputs": [
        {
          "internalType": "bytes32",
          "name": "",
          "type": "bytes32"
        }
      ],
      "name": "approvedSignatures",
      "outputs": [
        {
          "internalType": "bytes32",
          "name": "",
          "type": "bytes32"
        }
      ],
      "stateMutability": "view",
      "type": "function"
    },
    {
      "inputs": [
        {
          "internalType": "int256",
          "name": "_chatID",
          "type": "int256"
        },
        {
          "internalType": "address[]",
          "name": "_owners",
          "type": "address[]"
        },
        {
          "internalType": "uint256",
          "name": "_threshold",
          "type": "uint256"
        }
      ],
      "name": "assembleDao",
      "outputs": [],
      "stateMutability": "nonpayable",
      "type": "function"
    },
    {
      "inputs": [
        {
          "internalType": "int256",
          "name": "",
          "type": "int256"
        }
      ],
      "name": "chatToHyperDao",
      "outputs": [
        {
          "internalType": "address",
          "name": "",
          "type": "address"
        }
      ],
      "stateMutability": "view",
      "type": "function"
    },
    {
      "inputs": [
        {
          "internalType": "int256",
          "name": "_chatID",
          "type": "int256"
        },
        {
          "internalType": "address",
          "name": "_to",
          "type": "address"
        },
        {
          "internalType": "uint256",
          "name": "_value",
          "type": "uint256"
        },
        {
          "internalType": "bytes",
          "name": "_data",
          "type": "bytes"
        },
        {
          "internalType": "enum Enum.Operation",
          "name": "_operation",
          "type": "uint8"
        },
        {
          "internalType": "uint256",
          "name": "_safeTxGas",
          "type": "uint256"
        },
        {
          "internalType": "uint256",
          "name": "_baseGas",
          "type": "uint256"
        },
        {
          "internalType": "uint256",
          "name": "_gasPrice",
          "type": "uint256"
        },
        {
          "internalType": "uint256",
          "name": "_nonce",
          "type": "uint256"
        }
      ],
      "name": "generateSignature",
      "outputs": [
        {
          "internalType": "bytes",
          "name": "signature",
          "type": "bytes"
        },
        {
          "internalType": "bytes32",
          "name": "hash",
          "type": "bytes32"
        }
      ],
      "stateMutability": "nonpayable",
      "type": "function"
    },
    {
      "inputs": [
        {
          "internalType": "bytes",
          "name": "_data",
          "type": "bytes"
        },
        {
          "internalType": "bytes",
          "name": "_signature",
          "type": "bytes"
        }
      ],
      "name": "isValidSignature",
      "outputs": [
        {
          "internalType": "bytes4",
          "name": "",
          "type": "bytes4"
        }
      ],
      "stateMutability": "view",
      "type": "function"
    },
    {
      "inputs": [
        {
          "internalType": "address",
          "name": "_safe",
          "type": "address"
        },
        {
          "internalType": "int256",
          "name": "_chatID",
          "type": "int256"
        }
      ],
      "name": "setSafe",
      "outputs": [],
      "stateMutability": "nonpayable",
      "type": "function"
    }
  ],
  "transactionHash": "0x1691f4197e10234c1eed3e14453ab91eb43b3daf9508ada70d1c90eed70bf6ae",
  "args": [
    "0xd9Db270c1B5E3Bd161E8c8503c55cEABeE709552",
    "0xa6B71E26C5e0845f74c812102Ca7114b6a896AB2"
  ],
  "solcInputHash": "f0bf70f17566d0dda6718f096d6d7782",
  "bytecode": "0x608060405234801561001057600080fd5b50604051610d58380380610d5883398101604081905261002f9161007c565b600080546001600160a01b039384166001600160a01b031991821617909155600180549290931691161790556100af565b80516001600160a01b038116811461007757600080fd5b919050565b6000806040838503121561008f57600080fd5b61009883610060565b91506100a660208401610060565b90509250929050565b610c9a806100be6000396000f3fe608060405234801561001057600080fd5b50600436106100625760003560e01c80630b75495c1461006757806320c13b0b1461007c5780636b23ea78146100ad578063c61abba2146100ee578063e0b683ea14610101578063e14ff99814610122575b600080fd5b61007a610075366004610697565b610150565b005b61008f61008a36600461077a565b61024f565b6040516001600160e01b031990911681526020015b60405180910390f35b6100d66100bb3660046107de565b6002602052600090815260409020546001600160a01b031681565b6040516001600160a01b0390911681526020016100a4565b61007a6100fc3660046107f7565b6102da565b61011461010f3660046108d1565b610343565b6040516100a49291906109fe565b6101426101303660046107de565b60036020526000908152604090205481565b6040519081526020016100a4565b6000818152600260205260409020546001600160a01b031633146101bb5760405162461bcd60e51b815260206004820152601f60248201527f5369676e65723a206f6e6c7920736166652066756e6374696f6e616c6974790060448201526064015b60405180910390fd5b6001600160a01b0382166102215760405162461bcd60e51b815260206004820152602760248201527f5369676e65723a206e657720736166652063616e6e6f74206265207a65726f206044820152666164647265737360c81b60648201526084016101b2565b600090815260026020526040902080546001600160a01b0319166001600160a01b0392909216919091179055565b600082516020141561029557602083810151835184830120600082815260039093526040909220549091141561028f57506320c13b0b60e01b90506102d4565b506102cc565b818051906020012060036000858051906020012081526020019081526020016000205414156102cc57506320c13b0b60e01b6102d4565b5061060f60f31b5b92915050565b60006102e783838661059e565b60008581526002602052604080822080546001600160a01b0319166001600160a01b03851690811790915590519293509186917ff1bb5d022d6a042832d2f8f58dca58751c185016ed8ec908ad62478ddab0042591a350505050565b6060600080600260008e815260200190815260200160002060009054906101000a90046001600160a01b03169050806001600160a01b031663d8d11f788d8d8d8d8d8d8d8d6000808f6040518c63ffffffff1660e01b81526004016103b29b9a99989796959493929190610a20565b60206040518083038186803b1580156103ca57600080fd5b505afa1580156103de573d6000803e3d6000fd5b505050506040513d601f19601f820116820180604052508101906104029190610ad1565b604080516000602082018190526bffffffffffffffffffffffff193060601b16602c830152929450016040516020818303038152906040529050600061050584604080517fa1a7ad659422d5fc08fdc481fd7d8af8daf7993bc4e833452b0268ceaab66e5d602080830191909152818301939093528151808203830181526060820183528051908401207f7a9f5b2bf4dbb53eb85e012c6094a3d71d76e5bfe821f44ab63ed59311264e35608083015260a0808301919091528251808303909101815260c0820183528051930192909220601960f81b60e0840152602360f81b60e184015260e28084019190915281518084039091018152610102909201905290565b8051604051919250610524918491604191600091908690602001610aea565b604051602081830303815290604052945080805190602001206003600086815260200190815260200160002081905550837f4418bf19096bdd1b926a95d3cba8654e780b1b8b9a68526fb2faa0de58040d85866040516105849190610b38565b60405180910390a25050509a509a98505050505050505050565b600080848460008060008060006040516024016105c19796959493929190610b52565b60408051601f198184030181529181526020820180516001600160e01b031663b63e800d60e01b1790526001546000549151631688f0b960e01b81529293506001600160a01b0390811692631688f0b99261062492169085908890600401610c13565b602060405180830381600087803b15801561063e57600080fd5b505af1158015610652573d6000803e3d6000fd5b505050506040513d601f19601f820116820180604052508101906106769190610c47565b95945050505050565b6001600160a01b038116811461069457600080fd5b50565b600080604083850312156106aa57600080fd5b82356106b58161067f565b946020939093013593505050565b634e487b7160e01b600052604160045260246000fd5b604051601f8201601f1916810167ffffffffffffffff81118282101715610702576107026106c3565b604052919050565b600082601f83011261071b57600080fd5b813567ffffffffffffffff811115610735576107356106c3565b610748601f8201601f19166020016106d9565b81815284602083860101111561075d57600080fd5b816020850160208301376000918101602001919091529392505050565b6000806040838503121561078d57600080fd5b823567ffffffffffffffff808211156107a557600080fd5b6107b18683870161070a565b935060208501359150808211156107c757600080fd5b506107d48582860161070a565b9150509250929050565b6000602082840312156107f057600080fd5b5035919050565b60008060006060848603121561080c57600080fd5b8335925060208085013567ffffffffffffffff8082111561082c57600080fd5b818701915087601f83011261084057600080fd5b813581811115610852576108526106c3565b8060051b91506108638483016106d9565b818152918301840191848101908a84111561087d57600080fd5b938501935b838510156108a757843592506108978361067f565b8282529385019390850190610882565b979a979950505050604095909501359450505050565b8035600281106108cc57600080fd5b919050565b6000806000806000806000806000806101208b8d0312156108f157600080fd5b8a35995060208b01356109038161067f565b985060408b0135975060608b013567ffffffffffffffff8082111561092757600080fd5b818d0191508d601f83011261093b57600080fd5b81358181111561094a57600080fd5b8e602082850101111561095c57600080fd5b60208301995080985050505061097460808c016108bd565b945060a08b0135935060c08b0135925060e08b013591506101008b013590509295989b9194979a5092959850565b60005b838110156109bd5781810151838201526020016109a5565b838111156109cc576000848401525b50505050565b600081518084526109ea8160208601602086016109a2565b601f01601f19169290920160200192915050565b604081526000610a1160408301856109d2565b90508260208301529392505050565b6001600160a01b038c168152602081018b905261014060408201819052810189905260006101608a8c828501376000838c01820152601f8b01601f1916830101905060028910610a8057634e487b7160e01b600052602160045260246000fd5b8860608301528760808301528660a08301528560c0830152610aad60e08301866001600160a01b03169052565b6001600160a01b039390931661010082015261012001529998505050505050505050565b600060208284031215610ae357600080fd5b5051919050565b60008651610afc818460208b016109a2565b808301905086815260ff60f81b861660208201528460218201528351610b298160418401602088016109a2565b01604101979650505050505050565b602081526000610b4b60208301846109d2565b9392505050565b6101008082528851908201819052600090610120830190602090818c01845b82811015610b965781516001600160a01b031685529383019390830190600101610b71565b50505083018990526001600160a01b038816604084015282810360608401526002815261060f60f31b602082015260408101915050610be060808301876001600160a01b03169052565b6001600160a01b03851660a083015260ff841660c08301526001600160a01b03831660e083015298975050505050505050565b6001600160a01b0384168152606060208201819052600090610c37908301856109d2565b9050826040830152949350505050565b600060208284031215610c5957600080fd5b8151610b4b8161067f56fea264697066735822122057a8fdc64ee16a5a5e778af4c816b7f57251e9228134a4267e25401e5179e83364736f6c63430008090033",
  "devdoc": {
    "details": "Smart contract that enables the creation Gnosis Safe and proposal generation for Hyperdao.",
    "kind": "dev",
    "methods": {
      "assembleDao(int256,address[],uint256)": {
        "details": "AssembleDao",
        "params": {
          "_chatID": "ID of a Telegram chat.",
          "_owners": "Owners of the multisig.",
          "_threshold": "Voting threshold."
        }
      },
      "constructor": {
        "details": "HyperDAO constructor function."
      },
      "generateSignature(int256,address,uint256,bytes,uint8,uint256,uint256,uint256,uint256)": {
        "details": "Signature generator",
        "params": {
          "_baseGas": "base gas for gnosis safe.",
          "_data": "encoded transaction data.",
          "_gasPrice": "gas price for gnosis safe transaction.",
          "_nonce": "gnosis safe contract nonce.",
          "_operation": "type of operation call.",
          "_safeTxGas": "safe transaction gas for gnosis safe.",
          "_to": "receiver address.",
          "_value": "value in wei."
        }
      },
      "isValidSignature(bytes,bytes)": {
        "details": "Validate signature using EIP1271",
        "params": {
          "_data": "Encoded transaction hash supplied to verify signature.",
          "_signature": "Signature that needs to be verified."
        }
      },
      "setSafe(address,int256)": {
        "details": "set new safe",
        "params": {
          "_safe": "safe address"
        }
      }
    },
    "title": "HyperDao contract",
    "version": 1
  },
  "userdoc": {
    "kind": "user",
    "methods": {},
    "version": 1
  },
  "storageLayout": {
    "storage": [
      {
        "astId": 2586,
        "contract": "contracts/HyperDAO.sol:HyperDAO",
        "label": "safeMasterCopy",
        "offset": 0,
        "slot": "0",
        "type": "t_address"
      },
      {
        "astId": 2588,
        "contract": "contracts/HyperDAO.sol:HyperDAO",
        "label": "proxyFactoryMasterCopy",
        "offset": 0,
        "slot": "1",
        "type": "t_address"
      },
      {
        "astId": 2598,
        "contract": "contracts/HyperDAO.sol:HyperDAO",
        "label": "chatToHyperDao",
        "offset": 0,
        "slot": "2",
        "type": "t_mapping(t_int256,t_address)"
      },
      {
        "astId": 2602,
        "contract": "contracts/HyperDAO.sol:HyperDAO",
        "label": "approvedSignatures",
        "offset": 0,
        "slot": "3",
        "type": "t_mapping(t_bytes32,t_bytes32)"
      }
    ],
    "types": {
      "t_address": {
        "encoding": "inplace",
        "label": "address",
        "numberOfBytes": "20"
      },
      "t_bytes32": {
        "encoding": "inplace",
        "label": "bytes32",
        "numberOfBytes": "32"
      },
      "t_int256": {
        "encoding": "inplace",
        "label": "int256",
        "numberOfBytes": "32"
      },
      "t_mapping(t_bytes32,t_bytes32)": {
        "encoding": "mapping",
        "key": "t_bytes32",
        "label": "mapping(bytes32 => bytes32)",
        "numberOfBytes": "32",
        "value": "t_bytes32"
      },
      "t_mapping(t_int256,t_address)": {
        "encoding": "mapping",
        "key": "t_int256",
        "label": "mapping(int256 => address)",
        "numberOfBytes": "32",
        "value": "t_address"
      }
    }
  }
}