{
  "address": "0x18Cf4b9320fA0DFE14bE604251c9Df9d3F66586E",
  "abi": [
    {
      "inputs": [
        {
          "internalType": "address",
          "name": "_safeMasterCopy",
          "type": "address"
        },
        {
          "internalType": "address",
          "name": "_proxyFactoryMasterCopy",
          "type": "address"
        }
      ],
      "stateMutability": "nonpayable",
      "type": "constructor"
    },
    {
      "anonymous": false,
      "inputs": [
        {
          "indexed": true,
          "internalType": "int256",
          "name": "chatID",
          "type": "int256"
        },
        {
          "indexed": true,
          "internalType": "address",
          "name": "safe",
          "type": "address"
        }
      ],
      "name": "HyperDaoAssembled",
      "type": "event"
    },
    {
      "anonymous": false,
      "inputs": [
        {
          "indexed": false,
          "internalType": "bytes",
          "name": "signature",
          "type": "bytes"
        },
        {
          "indexed": true,
          "internalType": "bytes32",
          "name": "hash",
          "type": "bytes32"
        }
      ],
      "name": "SignatureCreated",
      "type": "event"
    },
    {
      "inputs": [
        {
          "internalType": "bytes32",
          "name": "",
          "type": "bytes32"
        }
      ],
      "name": "approvedSignatures",
      "outputs": [
        {
          "internalType": "bytes32",
          "name": "",
          "type": "bytes32"
        }
      ],
      "stateMutability": "view",
      "type": "function"
    },
    {
      "inputs": [
        {
          "internalType": "int256",
          "name": "_chatID",
          "type": "int256"
        },
        {
          "internalType": "address[]",
          "name": "_owners",
          "type": "address[]"
        },
        {
          "internalType": "uint256",
          "name": "_threshold",
          "type": "uint256"
        }
      ],
      "name": "assembleDao",
      "outputs": [],
      "stateMutability": "nonpayable",
      "type": "function"
    },
    {
      "inputs": [
        {
          "internalType": "int256",
          "name": "",
          "type": "int256"
        }
      ],
      "name": "chatToHyperDao",
      "outputs": [
        {
          "internalType": "address",
          "name": "",
          "type": "address"
        }
      ],
      "stateMutability": "view",
      "type": "function"
    },
    {
      "inputs": [
        {
          "internalType": "int256",
          "name": "_chatID",
          "type": "int256"
        },
        {
          "internalType": "address",
          "name": "_to",
          "type": "address"
        },
        {
          "internalType": "uint256",
          "name": "_value",
          "type": "uint256"
        },
        {
          "internalType": "bytes",
          "name": "_data",
          "type": "bytes"
        },
        {
          "internalType": "enum Enum.Operation",
          "name": "_operation",
          "type": "uint8"
        },
        {
          "internalType": "uint256",
          "name": "_safeTxGas",
          "type": "uint256"
        },
        {
          "internalType": "uint256",
          "name": "_baseGas",
          "type": "uint256"
        },
        {
          "internalType": "uint256",
          "name": "_gasPrice",
          "type": "uint256"
        },
        {
          "internalType": "address[]",
          "name": "_gasTokenRefundReceiver",
          "type": "address[]"
        },
        {
          "internalType": "uint256",
          "name": "_nonce",
          "type": "uint256"
        }
      ],
      "name": "generateSignature",
      "outputs": [
        {
          "internalType": "bytes",
          "name": "signature",
          "type": "bytes"
        },
        {
          "internalType": "bytes32",
          "name": "hash",
          "type": "bytes32"
        }
      ],
      "stateMutability": "nonpayable",
      "type": "function"
    },
    {
      "inputs": [
        {
          "internalType": "bytes",
          "name": "_data",
          "type": "bytes"
        },
        {
          "internalType": "bytes",
          "name": "_signature",
          "type": "bytes"
        }
      ],
      "name": "isValidSignature",
      "outputs": [
        {
          "internalType": "bytes4",
          "name": "",
          "type": "bytes4"
        }
      ],
      "stateMutability": "view",
      "type": "function"
    }
  ],
  "transactionHash": "0x00907b5a0d29915402b0f070dafadd93d1ed07ac8864b4f5c3da985baf00e03b",
  "args": [
    "0xd9Db270c1B5E3Bd161E8c8503c55cEABeE709552",
    "0xa6B71E26C5e0845f74c812102Ca7114b6a896AB2"
  ],
  "solcInputHash": "33cb17e84fd33eacba33c0dacc0c7b2f",
  "bytecode": "0x608060405234801561001057600080fd5b50604051610ca9380380610ca983398101604081905261002f9161007c565b600080546001600160a01b039384166001600160a01b031991821617909155600180549290931691161790556100af565b80516001600160a01b038116811461007757600080fd5b919050565b6000806040838503121561008f57600080fd5b61009883610060565b91506100a660208401610060565b90509250929050565b610beb806100be6000396000f3fe608060405234801561001057600080fd5b50600436106100575760003560e01c806320c13b0b1461005c5780636b23ea781461008d578063c61abba2146100ce578063e14ff998146100e3578063ed6db97c14610111575b600080fd5b61006f61006a36600461063c565b610132565b6040516001600160e01b031990911681526020015b60405180910390f35b6100b661009b3660046106a0565b6002602052600090815260409020546001600160a01b031681565b6040516001600160a01b039091168152602001610084565b6100e16100dc36600461076a565b6101bd565b005b6101036100f13660046106a0565b60036020526000908152604090205481565b604051908152602001610084565b61012461011f366004610812565b610226565b604051610084929190610939565b600082516020141561017857602083810151835184830120600082815260039093526040909220549091141561017257506320c13b0b60e01b90506101b7565b506101af565b818051906020012060036000858051906020012081526020019081526020016000205414156101af57506320c13b0b60e01b6101b7565b5061060f60f31b5b92915050565b60006101ca8383866104a4565b60008581526002602052604080822080546001600160a01b0319166001600160a01b03851690811790915590519293509186917ff1bb5d022d6a042832d2f8f58dca58751c185016ed8ec908ad62478ddab0042591a350505050565b60008b8152600260205260408120548351606092916001600160a01b031690819063d8d11f78908f9085908f908f908f908f908f908f908f90889061026d5761026d61095b565b60200260200101518f6001815181106102885761028861095b565b60200260200101518f6040518c63ffffffff1660e01b81526004016102b79b9a99989796959493929190610971565b60206040518083038186803b1580156102cf57600080fd5b505afa1580156102e3573d6000803e3d6000fd5b505050506040513d601f19601f820116820180604052508101906103079190610a22565b604080516000602082018190526bffffffffffffffffffffffff193060601b16602c830152929450016040516020818303038152906040529050600061040a84604080517fa1a7ad659422d5fc08fdc481fd7d8af8daf7993bc4e833452b0268ceaab66e5d602080830191909152818301939093528151808203830181526060820183528051908401207f7a9f5b2bf4dbb53eb85e012c6094a3d71d76e5bfe821f44ab63ed59311264e35608083015260a0808301919091528251808303909101815260c0820183528051930192909220601960f81b60e0840152602360f81b60e184015260e28084019190915281518084039091018152610102909201905290565b8051604051919250610429918491604191600091908690602001610a3b565b604051602081830303815290604052945080805190602001206003600086815260200190815260200160002081905550837f4418bf19096bdd1b926a95d3cba8654e780b1b8b9a68526fb2faa0de58040d85866040516104899190610a89565b60405180910390a25050509b509b9950505050505050505050565b600080848460008060008060006040516024016104c79796959493929190610aa3565b60408051601f198184030181529181526020820180516001600160e01b031663b63e800d60e01b1790526001546000549151631688f0b960e01b81529293506001600160a01b0390811692631688f0b99261052a92169085908890600401610b64565b602060405180830381600087803b15801561054457600080fd5b505af1158015610558573d6000803e3d6000fd5b505050506040513d601f19601f8201168201806040525081019061057c9190610b98565b95945050505050565b634e487b7160e01b600052604160045260246000fd5b604051601f8201601f1916810167ffffffffffffffff811182821017156105c4576105c4610585565b604052919050565b600082601f8301126105dd57600080fd5b813567ffffffffffffffff8111156105f7576105f7610585565b61060a601f8201601f191660200161059b565b81815284602083860101111561061f57600080fd5b816020850160208301376000918101602001919091529392505050565b6000806040838503121561064f57600080fd5b823567ffffffffffffffff8082111561066757600080fd5b610673868387016105cc565b9350602085013591508082111561068957600080fd5b50610696858286016105cc565b9150509250929050565b6000602082840312156106b257600080fd5b5035919050565b6001600160a01b03811681146106ce57600080fd5b50565b80356106dc816106b9565b919050565b600082601f8301126106f257600080fd5b8135602067ffffffffffffffff82111561070e5761070e610585565b8160051b61071d82820161059b565b928352848101820192828101908785111561073757600080fd5b83870192505b8483101561075f578235610750816106b9565b8252918301919083019061073d565b979650505050505050565b60008060006060848603121561077f57600080fd5b83359250602084013567ffffffffffffffff81111561079d57600080fd5b6107a9868287016106e1565b925050604084013590509250925092565b60008083601f8401126107cc57600080fd5b50813567ffffffffffffffff8111156107e457600080fd5b6020830191508360208285010111156107fc57600080fd5b9250929050565b8035600281106106dc57600080fd5b60008060008060008060008060008060006101408c8e03121561083457600080fd5b8b359a5061084460208d016106d1565b995060408c0135985067ffffffffffffffff8060608e0135111561086757600080fd5b6108778e60608f01358f016107ba565b909950975061088860808e01610803565b965060a08d0135955060c08d0135945060e08d01359350806101008e013511156108b157600080fd5b506108c38d6101008e01358e016106e1565b91506101208c013590509295989b509295989b9093969950565b60005b838110156108f85781810151838201526020016108e0565b83811115610907576000848401525b50505050565b600081518084526109258160208601602086016108dd565b601f01601f19169290920160200192915050565b60408152600061094c604083018561090d565b90508260208301529392505050565b634e487b7160e01b600052603260045260246000fd5b6001600160a01b038c168152602081018b905261014060408201819052810189905260006101608a8c828501376000838c01820152601f8b01601f19168301019050600289106109d157634e487b7160e01b600052602160045260246000fd5b8860608301528760808301528660a08301528560c08301526109fe60e08301866001600160a01b03169052565b6001600160a01b039390931661010082015261012001529998505050505050505050565b600060208284031215610a3457600080fd5b5051919050565b60008651610a4d818460208b016108dd565b808301905086815260ff60f81b861660208201528460218201528351610a7a8160418401602088016108dd565b01604101979650505050505050565b602081526000610a9c602083018461090d565b9392505050565b6101008082528851908201819052600090610120830190602090818c01845b82811015610ae75781516001600160a01b031685529383019390830190600101610ac2565b50505083018990526001600160a01b038816604084015282810360608401526002815261060f60f31b602082015260408101915050610b3160808301876001600160a01b03169052565b6001600160a01b03851660a083015260ff841660c08301526001600160a01b03831660e083015298975050505050505050565b6001600160a01b0384168152606060208201819052600090610b889083018561090d565b9050826040830152949350505050565b600060208284031215610baa57600080fd5b8151610a9c816106b956fea2646970667358221220e288c89f22876b77d8f48c3e90d5bc0a6e37822b78ab8ef1ca1521e2319ac7b064736f6c63430008090033",
  "devdoc": {
    "details": "Smart contract that enables the creation Gnosis Safe and proposal generation for Hyperdao.",
    "kind": "dev",
    "methods": {
      "assembleDao(int256,address[],uint256)": {
        "details": "AssembleDao",
        "params": {
          "_chatID": "ID of a Telegram chat.",
          "_owners": "Owners of the multisig.",
          "_threshold": "Voting threshold."
        }
      },
      "constructor": {
        "details": "HyperDAO constructor function."
      },
      "generateSignature(int256,address,uint256,bytes,uint8,uint256,uint256,uint256,address[],uint256)": {
        "details": "Signature generator",
        "params": {
          "_baseGas": "base gas for gnosis safe.",
          "_data": "encoded transaction data.",
          "_gasPrice": "gas price for gnosis safe transaction.",
          "_nonce": "gnosis safe contract nonce.",
          "_operation": "type of operation call.",
          "_safeTxGas": "safe transaction gas for gnosis safe.",
          "_to": "receiver address.",
          "_value": "value in wei."
        }
      },
      "isValidSignature(bytes,bytes)": {
        "details": "Validate signature using EIP1271",
        "params": {
          "_data": "Encoded transaction hash supplied to verify signature.",
          "_signature": "Signature that needs to be verified."
        }
      }
    },
    "title": "HyperDao contract",
    "version": 1
  },
  "userdoc": {
    "kind": "user",
    "methods": {},
    "version": 1
  },
  "storageLayout": {
    "storage": [
      {
        "astId": 2586,
        "contract": "contracts/HyperDAO.sol:HyperDAO",
        "label": "safeMasterCopy",
        "offset": 0,
        "slot": "0",
        "type": "t_address"
      },
      {
        "astId": 2588,
        "contract": "contracts/HyperDAO.sol:HyperDAO",
        "label": "proxyFactoryMasterCopy",
        "offset": 0,
        "slot": "1",
        "type": "t_address"
      },
      {
        "astId": 2598,
        "contract": "contracts/HyperDAO.sol:HyperDAO",
        "label": "chatToHyperDao",
        "offset": 0,
        "slot": "2",
        "type": "t_mapping(t_int256,t_address)"
      },
      {
        "astId": 2602,
        "contract": "contracts/HyperDAO.sol:HyperDAO",
        "label": "approvedSignatures",
        "offset": 0,
        "slot": "3",
        "type": "t_mapping(t_bytes32,t_bytes32)"
      }
    ],
    "types": {
      "t_address": {
        "encoding": "inplace",
        "label": "address",
        "numberOfBytes": "20"
      },
      "t_bytes32": {
        "encoding": "inplace",
        "label": "bytes32",
        "numberOfBytes": "32"
      },
      "t_int256": {
        "encoding": "inplace",
        "label": "int256",
        "numberOfBytes": "32"
      },
      "t_mapping(t_bytes32,t_bytes32)": {
        "encoding": "mapping",
        "key": "t_bytes32",
        "label": "mapping(bytes32 => bytes32)",
        "numberOfBytes": "32",
        "value": "t_bytes32"
      },
      "t_mapping(t_int256,t_address)": {
        "encoding": "mapping",
        "key": "t_int256",
        "label": "mapping(int256 => address)",
        "numberOfBytes": "32",
        "value": "t_address"
      }
    }
  }
}