{
  "_format": "hh-sol-artifact-1",
  "contractName": "OwnerManager",
  "sourceName": "@gnosis.pm/safe-contracts/contracts/base/OwnerManager.sol",
  "abi": [
    {
      "anonymous": false,
      "inputs": [
        {
          "indexed": false,
          "internalType": "address",
          "name": "owner",
          "type": "address"
        }
      ],
      "name": "AddedOwner",
      "type": "event"
    },
    {
      "anonymous": false,
      "inputs": [
        {
          "indexed": false,
          "internalType": "uint256",
          "name": "threshold",
          "type": "uint256"
        }
      ],
      "name": "ChangedThreshold",
      "type": "event"
    },
    {
      "anonymous": false,
      "inputs": [
        {
          "indexed": false,
          "internalType": "address",
          "name": "owner",
          "type": "address"
        }
      ],
      "name": "RemovedOwner",
      "type": "event"
    },
    {
      "inputs": [
        {
          "internalType": "address",
          "name": "owner",
          "type": "address"
        },
        {
          "internalType": "uint256",
          "name": "_threshold",
          "type": "uint256"
        }
      ],
      "name": "addOwnerWithThreshold",
      "outputs": [],
      "stateMutability": "nonpayable",
      "type": "function"
    },
    {
      "inputs": [
        {
          "internalType": "uint256",
          "name": "_threshold",
          "type": "uint256"
        }
      ],
      "name": "changeThreshold",
      "outputs": [],
      "stateMutability": "nonpayable",
      "type": "function"
    },
    {
      "inputs": [],
      "name": "getOwners",
      "outputs": [
        {
          "internalType": "address[]",
          "name": "",
          "type": "address[]"
        }
      ],
      "stateMutability": "view",
      "type": "function"
    },
    {
      "inputs": [],
      "name": "getThreshold",
      "outputs": [
        {
          "internalType": "uint256",
          "name": "",
          "type": "uint256"
        }
      ],
      "stateMutability": "view",
      "type": "function"
    },
    {
      "inputs": [
        {
          "internalType": "address",
          "name": "owner",
          "type": "address"
        }
      ],
      "name": "isOwner",
      "outputs": [
        {
          "internalType": "bool",
          "name": "",
          "type": "bool"
        }
      ],
      "stateMutability": "view",
      "type": "function"
    },
    {
      "inputs": [
        {
          "internalType": "address",
          "name": "prevOwner",
          "type": "address"
        },
        {
          "internalType": "address",
          "name": "owner",
          "type": "address"
        },
        {
          "internalType": "uint256",
          "name": "_threshold",
          "type": "uint256"
        }
      ],
      "name": "removeOwner",
      "outputs": [],
      "stateMutability": "nonpayable",
      "type": "function"
    },
    {
      "inputs": [
        {
          "internalType": "address",
          "name": "prevOwner",
          "type": "address"
        },
        {
          "internalType": "address",
          "name": "oldOwner",
          "type": "address"
        },
        {
          "internalType": "address",
          "name": "newOwner",
          "type": "address"
        }
      ],
      "name": "swapOwner",
      "outputs": [],
      "stateMutability": "nonpayable",
      "type": "function"
    }
  ],
  "bytecode": "0x608060405234801561001057600080fd5b50610a6d806100206000396000f3fe608060405234801561001057600080fd5b506004361061007d5760003560e01c8063a0e67e2b1161005b578063a0e67e2b146100d2578063e318b52b146100e7578063e75235b8146100fa578063f8dc5dd91461010b57600080fd5b80630d582f13146100825780632f54bf6e14610097578063694e80c3146100bf575b600080fd5b61009561009036600461085c565b61011e565b005b6100aa6100a5366004610886565b610297565b60405190151581526020015b60405180910390f35b6100956100cd3660046108a8565b6102d2565b6100da610388565b6040516100b691906108c1565b6100956100f536600461090e565b610478565b6002546040519081526020016100b6565b610095610119366004610951565b61067d565b610126610807565b6001600160a01b0382161580159061014857506001600160a01b038216600114155b801561015d57506001600160a01b0382163014155b6101825760405162461bcd60e51b81526004016101799061098d565b60405180910390fd5b6001600160a01b0382811660009081526020819052604090205416156101d25760405162461bcd60e51b815260206004820152600560248201526411d4cc8c0d60da1b6044820152606401610179565b600060208190527fada5013122d395ba3c54772283fb069b10426056ef8ca54750cb9bb552a59e7d80546001600160a01b03858116808552604085208054929093166001600160a01b03199283161790925560018085528354909116909117909155805491610240836109c2565b90915550506040516001600160a01b03831681527f9465fa0c962cc76958e6373a993326400c1c94f8be2fe3a952adfa7f60b2ea269060200160405180910390a1806002541461029357610293816102d2565b5050565b60006001600160a01b0382166001148015906102cc57506001600160a01b038281166000908152602081905260409020541615155b92915050565b6102da610807565b6001548111156103145760405162461bcd60e51b8152602060048201526005602482015264475332303160d81b6044820152606401610179565b600181101561034d5760405162461bcd60e51b815260206004820152600560248201526423a999181960d91b6044820152606401610179565b60028190556040518181527f610f7ff2b304ae8903c3de74c60c6ab1f7d6226b3f52c5161905bb5ad4039c939060200160405180910390a150565b6060600060015467ffffffffffffffff8111156103a7576103a76109dd565b6040519080825280602002602001820160405280156103d0578160200160208202803683370190505b506001600090815260208190527fada5013122d395ba3c54772283fb069b10426056ef8ca54750cb9bb552a59e7d54919250906001600160a01b03165b6001600160a01b0381166001146104705780838381518110610431576104316109f3565b6001600160a01b039283166020918202929092018101919091529181166000908152918290526040909120541681610468816109c2565b92505061040d565b509092915050565b610480610807565b6001600160a01b038116158015906104a257506001600160a01b038116600114155b80156104b757506001600160a01b0381163014155b6104d35760405162461bcd60e51b81526004016101799061098d565b6001600160a01b0381811660009081526020819052604090205416156105235760405162461bcd60e51b815260206004820152600560248201526411d4cc8c0d60da1b6044820152606401610179565b6001600160a01b0382161580159061054557506001600160a01b038216600114155b6105615760405162461bcd60e51b81526004016101799061098d565b6001600160a01b038381166000908152602081905260409020548116908316146105b55760405162461bcd60e51b8152602060048201526005602482015264475332303560d81b6044820152606401610179565b6001600160a01b03828116600081815260208181526040808320805487871680865283862080549289166001600160a01b0319938416179055968a1685528285208054821690971790965592849052825490941690915591519081527ff8d49fc529812e9a7c5c50e69c20f0dccc0db8fa95c98bc58cc9a4f1c1299eaf910160405180910390a16040516001600160a01b03821681527f9465fa0c962cc76958e6373a993326400c1c94f8be2fe3a952adfa7f60b2ea269060200160405180910390a1505050565b610685610807565b80600180546106949190610a09565b10156106ca5760405162461bcd60e51b8152602060048201526005602482015264475332303160d81b6044820152606401610179565b6001600160a01b038216158015906106ec57506001600160a01b038216600114155b6107085760405162461bcd60e51b81526004016101799061098d565b6001600160a01b0383811660009081526020819052604090205481169083161461075c5760405162461bcd60e51b8152602060048201526005602482015264475332303560d81b6044820152606401610179565b6001600160a01b03828116600081815260208190526040808220805488861684529183208054929095166001600160a01b031992831617909455918152825490911690915560018054916107af83610a20565b90915550506040516001600160a01b03831681527ff8d49fc529812e9a7c5c50e69c20f0dccc0db8fa95c98bc58cc9a4f1c1299eaf9060200160405180910390a1806002541461080257610802816102d2565b505050565b33301461083e5760405162461bcd60e51b8152602060048201526005602482015264475330333160d81b6044820152606401610179565b565b80356001600160a01b038116811461085757600080fd5b919050565b6000806040838503121561086f57600080fd5b61087883610840565b946020939093013593505050565b60006020828403121561089857600080fd5b6108a182610840565b9392505050565b6000602082840312156108ba57600080fd5b5035919050565b6020808252825182820181905260009190848201906040850190845b818110156109025783516001600160a01b0316835292840192918401916001016108dd565b50909695505050505050565b60008060006060848603121561092357600080fd5b61092c84610840565b925061093a60208501610840565b915061094860408501610840565b90509250925092565b60008060006060848603121561096657600080fd5b61096f84610840565b925061097d60208501610840565b9150604084013590509250925092565b602080825260059082015264475332303360d81b604082015260600190565b634e487b7160e01b600052601160045260246000fd5b60006000198214156109d6576109d66109ac565b5060010190565b634e487b7160e01b600052604160045260246000fd5b634e487b7160e01b600052603260045260246000fd5b600082821015610a1b57610a1b6109ac565b500390565b600081610a2f57610a2f6109ac565b50600019019056fea26469706673582212208f2564533c49506c94edafe0e36afffd650bfaa26c2c9d33f767fbe28f56a43464736f6c63430008090033",
  "linkReferences": {},
  "deployedLinkReferences": {}
}