{
  "_format": "hh-sol-artifact-1",
  "contractName": "GnosisSafe",
  "sourceName": "@gnosis.pm/safe-contracts/contracts/GnosisSafe.sol",
  "abi": [
    {
      "inputs": [],
      "stateMutability": "nonpayable",
      "type": "constructor"
    },
    {
      "anonymous": false,
      "inputs": [
        {
          "indexed": false,
          "internalType": "address",
          "name": "owner",
          "type": "address"
        }
      ],
      "name": "AddedOwner",
      "type": "event"
    },
    {
      "anonymous": false,
      "inputs": [
        {
          "indexed": true,
          "internalType": "bytes32",
          "name": "approvedHash",
          "type": "bytes32"
        },
        {
          "indexed": true,
          "internalType": "address",
          "name": "owner",
          "type": "address"
        }
      ],
      "name": "ApproveHash",
      "type": "event"
    },
    {
      "anonymous": false,
      "inputs": [
        {
          "indexed": false,
          "internalType": "address",
          "name": "handler",
          "type": "address"
        }
      ],
      "name": "ChangedFallbackHandler",
      "type": "event"
    },
    {
      "anonymous": false,
      "inputs": [
        {
          "indexed": false,
          "internalType": "address",
          "name": "guard",
          "type": "address"
        }
      ],
      "name": "ChangedGuard",
      "type": "event"
    },
    {
      "anonymous": false,
      "inputs": [
        {
          "indexed": false,
          "internalType": "uint256",
          "name": "threshold",
          "type": "uint256"
        }
      ],
      "name": "ChangedThreshold",
      "type": "event"
    },
    {
      "anonymous": false,
      "inputs": [
        {
          "indexed": false,
          "internalType": "address",
          "name": "module",
          "type": "address"
        }
      ],
      "name": "DisabledModule",
      "type": "event"
    },
    {
      "anonymous": false,
      "inputs": [
        {
          "indexed": false,
          "internalType": "address",
          "name": "module",
          "type": "address"
        }
      ],
      "name": "EnabledModule",
      "type": "event"
    },
    {
      "anonymous": false,
      "inputs": [
        {
          "indexed": false,
          "internalType": "bytes32",
          "name": "txHash",
          "type": "bytes32"
        },
        {
          "indexed": false,
          "internalType": "uint256",
          "name": "payment",
          "type": "uint256"
        }
      ],
      "name": "ExecutionFailure",
      "type": "event"
    },
    {
      "anonymous": false,
      "inputs": [
        {
          "indexed": true,
          "internalType": "address",
          "name": "module",
          "type": "address"
        }
      ],
      "name": "ExecutionFromModuleFailure",
      "type": "event"
    },
    {
      "anonymous": false,
      "inputs": [
        {
          "indexed": true,
          "internalType": "address",
          "name": "module",
          "type": "address"
        }
      ],
      "name": "ExecutionFromModuleSuccess",
      "type": "event"
    },
    {
      "anonymous": false,
      "inputs": [
        {
          "indexed": false,
          "internalType": "bytes32",
          "name": "txHash",
          "type": "bytes32"
        },
        {
          "indexed": false,
          "internalType": "uint256",
          "name": "payment",
          "type": "uint256"
        }
      ],
      "name": "ExecutionSuccess",
      "type": "event"
    },
    {
      "anonymous": false,
      "inputs": [
        {
          "indexed": false,
          "internalType": "address",
          "name": "owner",
          "type": "address"
        }
      ],
      "name": "RemovedOwner",
      "type": "event"
    },
    {
      "anonymous": false,
      "inputs": [
        {
          "indexed": true,
          "internalType": "address",
          "name": "sender",
          "type": "address"
        },
        {
          "indexed": false,
          "internalType": "uint256",
          "name": "value",
          "type": "uint256"
        }
      ],
      "name": "SafeReceived",
      "type": "event"
    },
    {
      "anonymous": false,
      "inputs": [
        {
          "indexed": true,
          "internalType": "address",
          "name": "initiator",
          "type": "address"
        },
        {
          "indexed": false,
          "internalType": "address[]",
          "name": "owners",
          "type": "address[]"
        },
        {
          "indexed": false,
          "internalType": "uint256",
          "name": "threshold",
          "type": "uint256"
        },
        {
          "indexed": false,
          "internalType": "address",
          "name": "initializer",
          "type": "address"
        },
        {
          "indexed": false,
          "internalType": "address",
          "name": "fallbackHandler",
          "type": "address"
        }
      ],
      "name": "SafeSetup",
      "type": "event"
    },
    {
      "anonymous": false,
      "inputs": [
        {
          "indexed": true,
          "internalType": "bytes32",
          "name": "msgHash",
          "type": "bytes32"
        }
      ],
      "name": "SignMsg",
      "type": "event"
    },
    {
      "stateMutability": "nonpayable",
      "type": "fallback"
    },
    {
      "inputs": [],
      "name": "VERSION",
      "outputs": [
        {
          "internalType": "string",
          "name": "",
          "type": "string"
        }
      ],
      "stateMutability": "view",
      "type": "function"
    },
    {
      "inputs": [
        {
          "internalType": "address",
          "name": "owner",
          "type": "address"
        },
        {
          "internalType": "uint256",
          "name": "_threshold",
          "type": "uint256"
        }
      ],
      "name": "addOwnerWithThreshold",
      "outputs": [],
      "stateMutability": "nonpayable",
      "type": "function"
    },
    {
      "inputs": [
        {
          "internalType": "bytes32",
          "name": "hashToApprove",
          "type": "bytes32"
        }
      ],
      "name": "approveHash",
      "outputs": [],
      "stateMutability": "nonpayable",
      "type": "function"
    },
    {
      "inputs": [
        {
          "internalType": "address",
          "name": "",
          "type": "address"
        },
        {
          "internalType": "bytes32",
          "name": "",
          "type": "bytes32"
        }
      ],
      "name": "approvedHashes",
      "outputs": [
        {
          "internalType": "uint256",
          "name": "",
          "type": "uint256"
        }
      ],
      "stateMutability": "view",
      "type": "function"
    },
    {
      "inputs": [
        {
          "internalType": "uint256",
          "name": "_threshold",
          "type": "uint256"
        }
      ],
      "name": "changeThreshold",
      "outputs": [],
      "stateMutability": "nonpayable",
      "type": "function"
    },
    {
      "inputs": [
        {
          "internalType": "bytes32",
          "name": "dataHash",
          "type": "bytes32"
        },
        {
          "internalType": "bytes",
          "name": "data",
          "type": "bytes"
        },
        {
          "internalType": "bytes",
          "name": "signatures",
          "type": "bytes"
        },
        {
          "internalType": "uint256",
          "name": "requiredSignatures",
          "type": "uint256"
        }
      ],
      "name": "checkNSignatures",
      "outputs": [],
      "stateMutability": "view",
      "type": "function"
    },
    {
      "inputs": [
        {
          "internalType": "bytes32",
          "name": "dataHash",
          "type": "bytes32"
        },
        {
          "internalType": "bytes",
          "name": "data",
          "type": "bytes"
        },
        {
          "internalType": "bytes",
          "name": "signatures",
          "type": "bytes"
        }
      ],
      "name": "checkSignatures",
      "outputs": [],
      "stateMutability": "view",
      "type": "function"
    },
    {
      "inputs": [
        {
          "internalType": "address",
          "name": "prevModule",
          "type": "address"
        },
        {
          "internalType": "address",
          "name": "module",
          "type": "address"
        }
      ],
      "name": "disableModule",
      "outputs": [],
      "stateMutability": "nonpayable",
      "type": "function"
    },
    {
      "inputs": [],
      "name": "domainSeparator",
      "outputs": [
        {
          "internalType": "bytes32",
          "name": "",
          "type": "bytes32"
        }
      ],
      "stateMutability": "view",
      "type": "function"
    },
    {
      "inputs": [
        {
          "internalType": "address",
          "name": "module",
          "type": "address"
        }
      ],
      "name": "enableModule",
      "outputs": [],
      "stateMutability": "nonpayable",
      "type": "function"
    },
    {
      "inputs": [
        {
          "internalType": "address",
          "name": "to",
          "type": "address"
        },
        {
          "internalType": "uint256",
          "name": "value",
          "type": "uint256"
        },
        {
          "internalType": "bytes",
          "name": "data",
          "type": "bytes"
        },
        {
          "internalType": "enum Enum.Operation",
          "name": "operation",
          "type": "uint8"
        },
        {
          "internalType": "uint256",
          "name": "safeTxGas",
          "type": "uint256"
        },
        {
          "internalType": "uint256",
          "name": "baseGas",
          "type": "uint256"
        },
        {
          "internalType": "uint256",
          "name": "gasPrice",
          "type": "uint256"
        },
        {
          "internalType": "address",
          "name": "gasToken",
          "type": "address"
        },
        {
          "internalType": "address",
          "name": "refundReceiver",
          "type": "address"
        },
        {
          "internalType": "uint256",
          "name": "_nonce",
          "type": "uint256"
        }
      ],
      "name": "encodeTransactionData",
      "outputs": [
        {
          "internalType": "bytes",
          "name": "",
          "type": "bytes"
        }
      ],
      "stateMutability": "view",
      "type": "function"
    },
    {
      "inputs": [
        {
          "internalType": "address",
          "name": "to",
          "type": "address"
        },
        {
          "internalType": "uint256",
          "name": "value",
          "type": "uint256"
        },
        {
          "internalType": "bytes",
          "name": "data",
          "type": "bytes"
        },
        {
          "internalType": "enum Enum.Operation",
          "name": "operation",
          "type": "uint8"
        },
        {
          "internalType": "uint256",
          "name": "safeTxGas",
          "type": "uint256"
        },
        {
          "internalType": "uint256",
          "name": "baseGas",
          "type": "uint256"
        },
        {
          "internalType": "uint256",
          "name": "gasPrice",
          "type": "uint256"
        },
        {
          "internalType": "address",
          "name": "gasToken",
          "type": "address"
        },
        {
          "internalType": "address payable",
          "name": "refundReceiver",
          "type": "address"
        },
        {
          "internalType": "bytes",
          "name": "signatures",
          "type": "bytes"
        }
      ],
      "name": "execTransaction",
      "outputs": [
        {
          "internalType": "bool",
          "name": "success",
          "type": "bool"
        }
      ],
      "stateMutability": "payable",
      "type": "function"
    },
    {
      "inputs": [
        {
          "internalType": "address",
          "name": "to",
          "type": "address"
        },
        {
          "internalType": "uint256",
          "name": "value",
          "type": "uint256"
        },
        {
          "internalType": "bytes",
          "name": "data",
          "type": "bytes"
        },
        {
          "internalType": "enum Enum.Operation",
          "name": "operation",
          "type": "uint8"
        }
      ],
      "name": "execTransactionFromModule",
      "outputs": [
        {
          "internalType": "bool",
          "name": "success",
          "type": "bool"
        }
      ],
      "stateMutability": "nonpayable",
      "type": "function"
    },
    {
      "inputs": [
        {
          "internalType": "address",
          "name": "to",
          "type": "address"
        },
        {
          "internalType": "uint256",
          "name": "value",
          "type": "uint256"
        },
        {
          "internalType": "bytes",
          "name": "data",
          "type": "bytes"
        },
        {
          "internalType": "enum Enum.Operation",
          "name": "operation",
          "type": "uint8"
        }
      ],
      "name": "execTransactionFromModuleReturnData",
      "outputs": [
        {
          "internalType": "bool",
          "name": "success",
          "type": "bool"
        },
        {
          "internalType": "bytes",
          "name": "returnData",
          "type": "bytes"
        }
      ],
      "stateMutability": "nonpayable",
      "type": "function"
    },
    {
      "inputs": [],
      "name": "getChainId",
      "outputs": [
        {
          "internalType": "uint256",
          "name": "",
          "type": "uint256"
        }
      ],
      "stateMutability": "view",
      "type": "function"
    },
    {
      "inputs": [
        {
          "internalType": "address",
          "name": "start",
          "type": "address"
        },
        {
          "internalType": "uint256",
          "name": "pageSize",
          "type": "uint256"
        }
      ],
      "name": "getModulesPaginated",
      "outputs": [
        {
          "internalType": "address[]",
          "name": "array",
          "type": "address[]"
        },
        {
          "internalType": "address",
          "name": "next",
          "type": "address"
        }
      ],
      "stateMutability": "view",
      "type": "function"
    },
    {
      "inputs": [],
      "name": "getOwners",
      "outputs": [
        {
          "internalType": "address[]",
          "name": "",
          "type": "address[]"
        }
      ],
      "stateMutability": "view",
      "type": "function"
    },
    {
      "inputs": [
        {
          "internalType": "uint256",
          "name": "offset",
          "type": "uint256"
        },
        {
          "internalType": "uint256",
          "name": "length",
          "type": "uint256"
        }
      ],
      "name": "getStorageAt",
      "outputs": [
        {
          "internalType": "bytes",
          "name": "",
          "type": "bytes"
        }
      ],
      "stateMutability": "view",
      "type": "function"
    },
    {
      "inputs": [],
      "name": "getThreshold",
      "outputs": [
        {
          "internalType": "uint256",
          "name": "",
          "type": "uint256"
        }
      ],
      "stateMutability": "view",
      "type": "function"
    },
    {
      "inputs": [
        {
          "internalType": "address",
          "name": "to",
          "type": "address"
        },
        {
          "internalType": "uint256",
          "name": "value",
          "type": "uint256"
        },
        {
          "internalType": "bytes",
          "name": "data",
          "type": "bytes"
        },
        {
          "internalType": "enum Enum.Operation",
          "name": "operation",
          "type": "uint8"
        },
        {
          "internalType": "uint256",
          "name": "safeTxGas",
          "type": "uint256"
        },
        {
          "internalType": "uint256",
          "name": "baseGas",
          "type": "uint256"
        },
        {
          "internalType": "uint256",
          "name": "gasPrice",
          "type": "uint256"
        },
        {
          "internalType": "address",
          "name": "gasToken",
          "type": "address"
        },
        {
          "internalType": "address",
          "name": "refundReceiver",
          "type": "address"
        },
        {
          "internalType": "uint256",
          "name": "_nonce",
          "type": "uint256"
        }
      ],
      "name": "getTransactionHash",
      "outputs": [
        {
          "internalType": "bytes32",
          "name": "",
          "type": "bytes32"
        }
      ],
      "stateMutability": "view",
      "type": "function"
    },
    {
      "inputs": [
        {
          "internalType": "address",
          "name": "module",
          "type": "address"
        }
      ],
      "name": "isModuleEnabled",
      "outputs": [
        {
          "internalType": "bool",
          "name": "",
          "type": "bool"
        }
      ],
      "stateMutability": "view",
      "type": "function"
    },
    {
      "inputs": [
        {
          "internalType": "address",
          "name": "owner",
          "type": "address"
        }
      ],
      "name": "isOwner",
      "outputs": [
        {
          "internalType": "bool",
          "name": "",
          "type": "bool"
        }
      ],
      "stateMutability": "view",
      "type": "function"
    },
    {
      "inputs": [],
      "name": "nonce",
      "outputs": [
        {
          "internalType": "uint256",
          "name": "",
          "type": "uint256"
        }
      ],
      "stateMutability": "view",
      "type": "function"
    },
    {
      "inputs": [
        {
          "internalType": "address",
          "name": "prevOwner",
          "type": "address"
        },
        {
          "internalType": "address",
          "name": "owner",
          "type": "address"
        },
        {
          "internalType": "uint256",
          "name": "_threshold",
          "type": "uint256"
        }
      ],
      "name": "removeOwner",
      "outputs": [],
      "stateMutability": "nonpayable",
      "type": "function"
    },
    {
      "inputs": [
        {
          "internalType": "address",
          "name": "to",
          "type": "address"
        },
        {
          "internalType": "uint256",
          "name": "value",
          "type": "uint256"
        },
        {
          "internalType": "bytes",
          "name": "data",
          "type": "bytes"
        },
        {
          "internalType": "enum Enum.Operation",
          "name": "operation",
          "type": "uint8"
        }
      ],
      "name": "requiredTxGas",
      "outputs": [
        {
          "internalType": "uint256",
          "name": "",
          "type": "uint256"
        }
      ],
      "stateMutability": "nonpayable",
      "type": "function"
    },
    {
      "inputs": [
        {
          "internalType": "address",
          "name": "handler",
          "type": "address"
        }
      ],
      "name": "setFallbackHandler",
      "outputs": [],
      "stateMutability": "nonpayable",
      "type": "function"
    },
    {
      "inputs": [
        {
          "internalType": "address",
          "name": "guard",
          "type": "address"
        }
      ],
      "name": "setGuard",
      "outputs": [],
      "stateMutability": "nonpayable",
      "type": "function"
    },
    {
      "inputs": [
        {
          "internalType": "address[]",
          "name": "_owners",
          "type": "address[]"
        },
        {
          "internalType": "uint256",
          "name": "_threshold",
          "type": "uint256"
        },
        {
          "internalType": "address",
          "name": "to",
          "type": "address"
        },
        {
          "internalType": "bytes",
          "name": "data",
          "type": "bytes"
        },
        {
          "internalType": "address",
          "name": "fallbackHandler",
          "type": "address"
        },
        {
          "internalType": "address",
          "name": "paymentToken",
          "type": "address"
        },
        {
          "internalType": "uint256",
          "name": "payment",
          "type": "uint256"
        },
        {
          "internalType": "address payable",
          "name": "paymentReceiver",
          "type": "address"
        }
      ],
      "name": "setup",
      "outputs": [],
      "stateMutability": "nonpayable",
      "type": "function"
    },
    {
      "inputs": [
        {
          "internalType": "bytes32",
          "name": "",
          "type": "bytes32"
        }
      ],
      "name": "signedMessages",
      "outputs": [
        {
          "internalType": "uint256",
          "name": "",
          "type": "uint256"
        }
      ],
      "stateMutability": "view",
      "type": "function"
    },
    {
      "inputs": [
        {
          "internalType": "address",
          "name": "targetContract",
          "type": "address"
        },
        {
          "internalType": "bytes",
          "name": "calldataPayload",
          "type": "bytes"
        }
      ],
      "name": "simulateAndRevert",
      "outputs": [],
      "stateMutability": "nonpayable",
      "type": "function"
    },
    {
      "inputs": [
        {
          "internalType": "address",
          "name": "prevOwner",
          "type": "address"
        },
        {
          "internalType": "address",
          "name": "oldOwner",
          "type": "address"
        },
        {
          "internalType": "address",
          "name": "newOwner",
          "type": "address"
        }
      ],
      "name": "swapOwner",
      "outputs": [],
      "stateMutability": "nonpayable",
      "type": "function"
    },
    {
      "stateMutability": "payable",
      "type": "receive"
    }
  ],
  "bytecode": "0x608060405234801561001057600080fd5b506001600455613039806100256000396000f3fe6080604052600436106101dc5760003560e01c8063affed0e011610102578063e19a9dd911610095578063f08a032311610064578063f08a032314610620578063f698da2514610640578063f8dc5dd914610655578063ffa1ad741461067557610218565b8063e19a9dd9146105ab578063e318b52b146105cb578063e75235b8146105eb578063e86637db1461060057610218565b8063cc2f8452116100d1578063cc2f84521461051d578063d4d9bdcd1461054b578063d8d11f781461056b578063e009cfde1461058b57610218565b8063affed0e0146104a7578063b4faba09146104bd578063b63e800d146104dd578063c4ca3a9c146104fd57610218565b80635624b25b1161017a5780636a761202116101495780636a7612021461041a5780637d8329741461042d578063934f3a1114610465578063a0e67e2b1461048557610218565b80635624b25b146103805780635ae6bd37146103ad578063610b5925146103da578063694e80c3146103fa57610218565b80632f54bf6e116101b65780632f54bf6e146102f55780633408e47014610315578063468721a7146103325780635229073f1461035257610218565b80630d582f131461027e57806312fb68e0146102a05780632d9ad53d146102c057610218565b366102185760405134815233907f3d0ce9bfc3ed7d6862dbb28b2dea94561fe714a1b4d019aa8af39730d1ad7c3d9060200160405180910390a2005b34801561022457600080fd5b507f6c9a6c4a39284e37ed1cf53d337577d14212a4870fb976a4366c693b939918d580548061024f57005b36600080373360601b365260008060143601600080855af190503d6000803e80610278573d6000fd5b503d6000f35b34801561028a57600080fd5b5061029e6102993660046124ac565b6106a6565b005b3480156102ac57600080fd5b5061029e6102bb36600461257a565b610806565b3480156102cc57600080fd5b506102e06102db3660046125ee565b610c7d565b60405190151581526020015b60405180910390f35b34801561030157600080fd5b506102e06103103660046125ee565b610cb8565b34801561032157600080fd5b50465b6040519081526020016102ec565b34801561033e57600080fd5b506102e061034d36600461261a565b610cf0565b34801561035e57600080fd5b5061037261036d36600461261a565b610dc7565b6040516102ec9291906126d0565b34801561038c57600080fd5b506103a061039b3660046126eb565b610dfd565b6040516102ec919061270d565b3480156103b957600080fd5b506103246103c8366004612720565b60076020526000908152604090205481565b3480156103e657600080fd5b5061029e6103f53660046125ee565b610e82565b34801561040657600080fd5b5061029e610415366004612720565b610fc4565b6102e0610428366004612781565b61105c565b34801561043957600080fd5b506103246104483660046124ac565b600860209081526000928352604080842090915290825290205481565b34801561047157600080fd5b5061029e610480366004612859565b6113a5565b34801561049157600080fd5b5061049a6113ef565b6040516102ec9190612909565b3480156104b357600080fd5b5061032460055481565b3480156104c957600080fd5b5061029e6104d836600461291c565b6114df565b3480156104e957600080fd5b5061029e6104f836600461296b565b611502565b34801561050957600080fd5b50610324610518366004612a5f565b611623565b34801561052957600080fd5b5061053d6105383660046124ac565b6116bd565b6040516102ec929190612acf565b34801561055757600080fd5b5061029e610566366004612720565b6117b6565b34801561057757600080fd5b50610324610586366004612af9565b61184b565b34801561059757600080fd5b5061029e6105a6366004612bb9565b611878565b3480156105b757600080fd5b5061029e6105c63660046125ee565b6119a7565b3480156105d757600080fd5b5061029e6105e6366004612bf2565b611a0c565b3480156105f757600080fd5b50600454610324565b34801561060c57600080fd5b506103a061061b366004612af9565b611bfb565b34801561062c57600080fd5b5061029e61063b3660046125ee565b611cd4565b34801561064c57600080fd5b50610324611d3d565b34801561066157600080fd5b5061029e610670366004612c3d565b611d94565b34801561068157600080fd5b506103a0604051806040016040528060058152602001640312e332e360dc1b81525081565b6106ae611f07565b6001600160a01b038216158015906106d057506001600160a01b038216600114155b80156106e557506001600160a01b0382163014155b61070a5760405162461bcd60e51b815260040161070190612c7e565b60405180910390fd5b6001600160a01b0382811660009081526002602052604090205416156107425760405162461bcd60e51b815260040161070190612c9d565b60026020527fe90b7bceb6e7df5418fb78d8ee546e97c83a08bbccc01a0644d599ccd2a7c2e080546001600160a01b038481166000818152604081208054939094166001600160a01b0319938416179093556001835283549091161790915560038054916107af83612cd2565b90915550506040516001600160a01b03831681527f9465fa0c962cc76958e6373a993326400c1c94f8be2fe3a952adfa7f60b2ea269060200160405180910390a180600454146108025761080281610fc4565b5050565b610811816041611f40565b825110156108495760405162461bcd60e51b8152602060048201526005602482015264047533032360dc1b6044820152606401610701565b6000808060008060005b86811015610c71576041818102890160208101516040820151919092015160ff169550909350915083610a2f579193508391610890876041611f40565b8210156108c75760405162461bcd60e51b8152602060048201526005602482015264475330323160d81b6044820152606401610701565b87516108d4836020611f79565b111561090a5760405162461bcd60e51b815260206004820152600560248201526423a998191960d91b6044820152606401610701565b60208289018101518951909161092d908390610927908790611f79565b90611f79565b11156109635760405162461bcd60e51b8152602060048201526005602482015264475330323360d81b6044820152606401610701565b6040516320c13b0b60e01b8082528a8501602001916001600160a01b038916906320c13b0b90610999908f908690600401612ced565b60206040518083038186803b1580156109b157600080fd5b505afa1580156109c5573d6000803e3d6000fd5b505050506040513d601f19601f820116820180604052508101906109e99190612d12565b6001600160e01b03191614610a285760405162461bcd60e51b815260206004820152600560248201526411d4cc0c8d60da1b6044820152606401610701565b5050610bd7565b8360ff1660011415610ab2579193508391336001600160a01b0384161480610a7957506001600160a01b03851660009081526008602090815260408083208d845290915290205415155b610aad5760405162461bcd60e51b8152602060048201526005602482015264475330323560d81b6044820152606401610701565b610bd7565b601e8460ff161115610b77576040517f19457468657265756d205369676e6564204d6573736167653a0a3332000000006020820152603c81018b9052600190605c0160405160208183030381529060405280519060200120600486610b179190612d3c565b6040805160008152602081018083529390935260ff90911690820152606081018590526080810184905260a0016020604051602081039080840390855afa158015610b66573d6000803e3d6000fd5b505050602060405103519450610bd7565b6040805160008152602081018083528c905260ff861691810191909152606081018490526080810183905260019060a0016020604051602081039080840390855afa158015610bca573d6000803e3d6000fd5b5050506020604051035194505b856001600160a01b0316856001600160a01b0316118015610c1157506001600160a01b038581166000908152600260205260409020541615155b8015610c2757506001600160a01b038516600114155b610c5b5760405162461bcd60e51b815260206004820152600560248201526423a998191b60d91b6044820152606401610701565b8495508080610c6990612cd2565b915050610853565b50505050505050505050565b600060016001600160a01b03831614801590610cb257506001600160a01b038281166000908152600160205260409020541615155b92915050565b60006001600160a01b038216600114801590610cb25750506001600160a01b0390811660009081526002602052604090205416151590565b600033600114801590610d1a5750336000908152600160205260409020546001600160a01b031615155b610d4e5760405162461bcd60e51b815260206004820152600560248201526411d4cc4c0d60da1b6044820152606401610701565b610d5b858585855a611f95565b90508015610d935760405133907f6895c13664aa4f67288b25d7a21d7aaa34916e355fb9b6fae0a139a9085becb890600090a2610dbf565b60405133907facd2c8702804128fdb0db2bb49f6d127dd0181c13fd45dbfe16de0930e2bd37590600090a25b949350505050565b60006060610dd786868686610cf0565b915060405160203d0181016040523d81523d6000602083013e8091505094509492505050565b60606000610e0c836020612d5f565b6001600160401b03811115610e2357610e236124d8565b6040519080825280601f01601f191660200182016040528015610e4d576020820181803683370190505b50905060005b83811015610e7a578481015460208083028401015280610e7281612cd2565b915050610e53565b509392505050565b610e8a611f07565b6001600160a01b03811615801590610eac57506001600160a01b038116600114155b610ee05760405162461bcd60e51b8152602060048201526005602482015264475331303160d81b6044820152606401610701565b6001600160a01b038181166000908152600160205260409020541615610f305760405162461bcd60e51b815260206004820152600560248201526423a998981960d91b6044820152606401610701565b600160208181527fcc69885fda6bcc1a4ace058b4a62bf5e179ea78fd58a1ccd71c22cc9b688792f80546001600160a01b03858116600081815260408082208054949095166001600160a01b031994851617909455959095528254168417909155519182527fecdf3a3effea5783a3c4c2140e677577666428d44ed9d474a0b3a4c9943f844091015b60405180910390a150565b610fcc611f07565b600354811115610fee5760405162461bcd60e51b815260040161070190612d7e565b60018110156110275760405162461bcd60e51b815260206004820152600560248201526423a999181960d91b6044820152606401610701565b60048190556040518181527f610f7ff2b304ae8903c3de74c60c6ab1f7d6226b3f52c5161905bb5ad4039c9390602001610fb9565b60008060006110768e8e8e8e8e8e8e8e8e8e600554611bfb565b60058054919250600061108883612cd2565b90915550508051602082012091506110a18282866113a5565b5060006110cc7f4a204f620c8c5ccdca3fd54d003badd85ba500436a431f0cbda4f558c93c34c85490565b90506001600160a01b0381161561115257806001600160a01b03166375f0bb528f8f8f8f8f8f8f8f8f8f8f336040518d63ffffffff1660e01b815260040161111f9c9b9a99989796959493929190612dd5565b600060405180830381600087803b15801561113957600080fd5b505af115801561114d573d6000803e3d6000fd5b505050505b61117e6111618a6109c4612e9a565b603f61116e8c6040612d5f565b6111789190612eb2565b90611fdd565b61118a906101f4612e9a565b5a10156111c15760405162461bcd60e51b8152602060048201526005602482015264047533031360dc1b6044820152606401610701565b60005a90506112328f8f8f8f8080601f016020809104026020016040519081016040528093929190818152602001838380828437600081840152601f19601f820116905080830192505050505050508e8c60001461121f578e611f95565b6109c45a61122d9190612ed4565b611f95565b935061123f5a8290611ff4565b9050838061124c57508915155b8061125657508715155b61128a5760405162461bcd60e51b8152602060048201526005602482015264475330313360d81b6044820152606401610701565b600088156112a25761129f828b8b8b8b61200f565b90505b84156112e65760408051858152602081018390527f442e715f626346e8c54381002da614f62bee8d27386535b2521ec8540898556e910160405180910390a1611320565b60408051858152602081018390527f23428b18acfb3ea64b08dc0c1d296ea9c09702c09083ca5272e64d115b687d23910160405180910390a15b50506001600160a01b0381161561139457604051631264e26d60e31b81526004810183905283151560248201526001600160a01b03821690639327136890604401600060405180830381600087803b15801561137b57600080fd5b505af115801561138f573d6000803e3d6000fd5b505050505b50509b9a5050505050505050505050565b600454806113dd5760405162461bcd60e51b8152602060048201526005602482015264475330303160d81b6044820152606401610701565b6113e984848484610806565b50505050565b606060006003546001600160401b0381111561140d5761140d6124d8565b604051908082528060200260200182016040528015611436578160200160208202803683370190505b506001600090815260026020527fe90b7bceb6e7df5418fb78d8ee546e97c83a08bbccc01a0644d599ccd2a7c2e054919250906001600160a01b03165b6001600160a01b0381166001146114d7578083838151811061149757611497612eeb565b6001600160a01b039283166020918202929092018101919091529181166000908152600290925260409091205416816114cf81612cd2565b925050611473565b509092915050565b600080825160208401855af480600052503d6020523d600060403e60403d016000fd5b6115408a8a808060200260200160405190810160405280939291908181526020018383602002808284376000920191909152508c9250612115915050565b6001600160a01b0384161561157757611577847f6c9a6c4a39284e37ed1cf53d337577d14212a4870fb976a4366c693b939918d555565b6115b78787878080601f0160208091040260200160405190810160405280939291908181526020018383808284376000920191909152506122fb92505050565b81156115ce576115cc8260006001868561200f565b505b336001600160a01b03167f141df868a6331af528e38c83b7aa03edc19be66e37ae67f9285bf4f8e3c6a1a88b8b8b8b8960405161160f959493929190612f01565b60405180910390a250505050505050505050565b6000805a905061166c878787878080601f01602080910402602001604051908101604052809392919081815260200183838082843760009201919091525089925050505a611f95565b61167557600080fd5b60005a6116829083612ed4565b90508060405160200161169791815260200190565b60408051601f198184030181529082905262461bcd60e51b82526107019160040161270d565b60606000826001600160401b038111156116d9576116d96124d8565b604051908082528060200260200182016040528015611702578160200160208202803683370190505b506001600160a01b0380861660009081526001602052604081205492945091165b6001600160a01b0381161580159061174557506001600160a01b038116600114155b801561175057508482105b156117a8578084838151811061176857611768612eeb565b6001600160a01b039283166020918202929092018101919091529181166000908152600190925260409091205416816117a081612cd2565b925050611723565b908352919491935090915050565b336000908152600260205260409020546001600160a01b03166118035760405162461bcd60e51b8152602060048201526005602482015264047533033360dc1b6044820152606401610701565b336000818152600860209081526040808320858452909152808220600190555183917ff2a0eb156472d1440255b0d7c1e19cc07115d1051fe605b0dce69acfec884d9c91a350565b60006118608c8c8c8c8c8c8c8c8c8c8c611bfb565b8051906020012090509b9a5050505050505050505050565b611880611f07565b6001600160a01b038116158015906118a257506001600160a01b038116600114155b6118d65760405162461bcd60e51b8152602060048201526005602482015264475331303160d81b6044820152606401610701565b6001600160a01b0382811660009081526001602052604090205481169082161461192a5760405162461bcd60e51b8152602060048201526005602482015264475331303360d81b6044820152606401610701565b6001600160a01b038181166000818152600160209081526040808320805488871685528285208054919097166001600160a01b03199182161790965592849052825490941690915591519081527faab4fa2b463f581b2b32cb3b7e3b704b9ce37cc209b5fb4d77e593ace405427691015b60405180910390a15050565b6119af611f07565b7f4a204f620c8c5ccdca3fd54d003badd85ba500436a431f0cbda4f558c93c34c88181556040516001600160a01b03831681527f1151116914515bc0891ff9047a6cb32cf902546f83066499bcf8ba33d2353fa29060200161199b565b611a14611f07565b6001600160a01b03811615801590611a3657506001600160a01b038116600114155b8015611a4b57506001600160a01b0381163014155b611a675760405162461bcd60e51b815260040161070190612c7e565b6001600160a01b038181166000908152600260205260409020541615611a9f5760405162461bcd60e51b815260040161070190612c9d565b6001600160a01b03821615801590611ac157506001600160a01b038216600114155b611add5760405162461bcd60e51b815260040161070190612c7e565b6001600160a01b03838116600090815260026020526040902054811690831614611b315760405162461bcd60e51b8152602060048201526005602482015264475332303560d81b6044820152606401610701565b6001600160a01b038281166000818152600260209081526040808320805487871680865283862080549289166001600160a01b0319938416179055968a1685528285208054821690971790965592849052825490941690915591519081527ff8d49fc529812e9a7c5c50e69c20f0dccc0db8fa95c98bc58cc9a4f1c1299eaf910160405180910390a16040516001600160a01b03821681527f9465fa0c962cc76958e6373a993326400c1c94f8be2fe3a952adfa7f60b2ea269060200160405180910390a1505050565b606060007fbb8310d486368db6bd6f849402fdd73ad53d316b5a4b2644ad6efe0f941286d860001b8d8d8d8d604051611c35929190612f6d565b604051908190038120611c5b949392918e908e908e908e908e908e908e90602001612f7d565b60408051601f1981840301815291905280516020909101209050601960f81b600160f81b611c87611d3d565b6040516001600160f81b031993841660208201529290911660218301526022820152604281018290526062016040516020818303038152906040529150509b9a5050505050505050505050565b611cdc611f07565b611d04817f6c9a6c4a39284e37ed1cf53d337577d14212a4870fb976a4366c693b939918d555565b6040516001600160a01b03821681527f5ac6c46c93c8d0e53714ba3b53db3e7c046da994313d7ed0d192028bc7c228b090602001610fb9565b60007f47e79534a245952e8b16893a336b85a3d9ea9fa8c573f3d803afb92a794692184660408051602081019390935282015230606082015260800160405160208183030381529060405280519060200120905090565b611d9c611f07565b806001600354611dac9190612ed4565b1015611dca5760405162461bcd60e51b815260040161070190612d7e565b6001600160a01b03821615801590611dec57506001600160a01b038216600114155b611e085760405162461bcd60e51b815260040161070190612c7e565b6001600160a01b03838116600090815260026020526040902054811690831614611e5c5760405162461bcd60e51b8152602060048201526005602482015264475332303560d81b6044820152606401610701565b6001600160a01b03828116600081815260026020526040808220805488861684529183208054929095166001600160a01b03199283161790945591815282549091169091556003805491611eaf83612fec565b90915550506040516001600160a01b03831681527ff8d49fc529812e9a7c5c50e69c20f0dccc0db8fa95c98bc58cc9a4f1c1299eaf9060200160405180910390a18060045414611f0257611f0281610fc4565b505050565b333014611f3e5760405162461bcd60e51b8152602060048201526005602482015264475330333160d81b6044820152606401610701565b565b600082611f4f57506000610cb2565b6000611f5b8385612d5f565b905082611f688583612eb2565b14611f7257600080fd5b9392505050565b600080611f868385612e9a565b905083811015611f7257600080fd5b60006001836001811115611fab57611fab612d9d565b1415611fc4576000808551602087018986f49050611fd4565b600080855160208701888a87f190505b95945050505050565b600081831015611fed5781611f72565b5090919050565b60008282111561200357600080fd5b6000610dbf8385612ed4565b6000806001600160a01b038316156120275782612029565b325b90506001600160a01b0384166120bc5761205b3a8610612049573a61204b565b855b6120558989611f79565b90611f40565b6040519092506001600160a01b0382169083156108fc029084906000818181858888f193505050506120b75760405162461bcd60e51b8152602060048201526005602482015264475330313160d81b6044820152606401610701565b61210b565b6120ca856120558989611f79565b91506120d78482846123f5565b61210b5760405162461bcd60e51b815260206004820152600560248201526423a998189960d91b6044820152606401610701565b5095945050505050565b6004541561214d5760405162461bcd60e51b8152602060048201526005602482015264047533230360dc1b6044820152606401610701565b815181111561216e5760405162461bcd60e51b815260040161070190612d7e565b60018110156121a75760405162461bcd60e51b815260206004820152600560248201526423a999181960d91b6044820152606401610701565b600160005b83518110156122c85760008482815181106121c9576121c9612eeb565b6020026020010151905060006001600160a01b0316816001600160a01b03161415801561220057506001600160a01b038116600114155b801561221557506001600160a01b0381163014155b80156122335750806001600160a01b0316836001600160a01b031614155b61224f5760405162461bcd60e51b815260040161070190612c7e565b6001600160a01b0381811660009081526002602052604090205416156122875760405162461bcd60e51b815260040161070190612c9d565b6001600160a01b03928316600090815260026020526040902080546001600160a01b03191693821693909317909255806122c081612cd2565b9150506121ac565b506001600160a01b0316600090815260026020526040902080546001600160a01b03191660011790559051600355600455565b600160008190526020527fcc69885fda6bcc1a4ace058b4a62bf5e179ea78fd58a1ccd71c22cc9b688792f546001600160a01b0316156123655760405162461bcd60e51b8152602060048201526005602482015264047533130360dc1b6044820152606401610701565b6001600081905260208190527fcc69885fda6bcc1a4ace058b4a62bf5e179ea78fd58a1ccd71c22cc9b688792f80546001600160a01b03191690911790556001600160a01b03821615610802576123c18260008360015a611f95565b6108025760405162461bcd60e51b8152602060048201526005602482015264047533030360dc1b6044820152606401610701565b604080516001600160a01b03841660248201526044808201849052825180830390910181526064909101909152602080820180516001600160e01b031663a9059cbb60e01b1781528251600093929184919082896127105a03f13d8015612467576020811461246f576000935061247a565b81935061247a565b600051158215171593505b5050509392505050565b6001600160a01b038116811461249957600080fd5b50565b80356124a781612484565b919050565b600080604083850312156124bf57600080fd5b82356124ca81612484565b946020939093013593505050565b634e487b7160e01b600052604160045260246000fd5b600082601f8301126124ff57600080fd5b81356001600160401b0380821115612519576125196124d8565b604051601f8301601f19908116603f01168101908282118183101715612541576125416124d8565b8160405283815286602085880101111561255a57600080fd5b836020870160208301376000602085830101528094505050505092915050565b6000806000806080858703121561259057600080fd5b8435935060208501356001600160401b03808211156125ae57600080fd5b6125ba888389016124ee565b945060408701359150808211156125d057600080fd5b506125dd878288016124ee565b949793965093946060013593505050565b60006020828403121561260057600080fd5b8135611f7281612484565b8035600281106124a757600080fd5b6000806000806080858703121561263057600080fd5b843561263b81612484565b93506020850135925060408501356001600160401b0381111561265d57600080fd5b612669878288016124ee565b9250506126786060860161260b565b905092959194509250565b6000815180845260005b818110156126a95760208185018101518683018201520161268d565b818111156126bb576000602083870101525b50601f01601f19169290920160200192915050565b8215158152604060208201526000610dbf6040830184612683565b600080604083850312156126fe57600080fd5b50508035926020909101359150565b602081526000611f726020830184612683565b60006020828403121561273257600080fd5b5035919050565b60008083601f84011261274b57600080fd5b5081356001600160401b0381111561276257600080fd5b60208301915083602082850101111561277a57600080fd5b9250929050565b60008060008060008060008060008060006101408c8e0312156127a357600080fd5b6127ac8c61249c565b9a5060208c013599506001600160401b038060408e013511156127ce57600080fd5b6127de8e60408f01358f01612739565b909a5098506127ef60608e0161260b565b975060808d0135965060a08d0135955060c08d0135945061281260e08e0161249c565b93506128216101008e0161249c565b9250806101208e0135111561283557600080fd5b506128478d6101208e01358e016124ee565b90509295989b509295989b9093969950565b60008060006060848603121561286e57600080fd5b8335925060208401356001600160401b038082111561288c57600080fd5b612898878388016124ee565b935060408601359150808211156128ae57600080fd5b506128bb868287016124ee565b9150509250925092565b600081518084526020808501945080840160005b838110156128fe5781516001600160a01b0316875295820195908201906001016128d9565b509495945050505050565b602081526000611f7260208301846128c5565b6000806040838503121561292f57600080fd5b823561293a81612484565b915060208301356001600160401b0381111561295557600080fd5b612961858286016124ee565b9150509250929050565b6000806000806000806000806000806101008b8d03121561298b57600080fd5b8a356001600160401b03808211156129a257600080fd5b818d0191508d601f8301126129b657600080fd5b8135818111156129c557600080fd5b8e60208260051b85010111156129da57600080fd5b60208381019d50909b508d013599506129f560408e0161249c565b985060608d0135915080821115612a0b57600080fd5b50612a188d828e01612739565b9097509550612a2b905060808c0161249c565b9350612a3960a08c0161249c565b925060c08b01359150612a4e60e08c0161249c565b90509295989b9194979a5092959850565b600080600080600060808688031215612a7757600080fd5b8535612a8281612484565b94506020860135935060408601356001600160401b03811115612aa457600080fd5b612ab088828901612739565b9094509250612ac390506060870161260b565b90509295509295909350565b604081526000612ae260408301856128c5565b905060018060a01b03831660208301529392505050565b60008060008060008060008060008060006101408c8e031215612b1b57600080fd5b8b35612b2681612484565b9a5060208c0135995060408c01356001600160401b03811115612b4857600080fd5b612b548e828f01612739565b909a509850612b67905060608d0161260b565b965060808c0135955060a08c0135945060c08c0135935060e08c0135612b8c81612484565b92506101008c0135612b9d81612484565b809250506101208c013590509295989b509295989b9093969950565b60008060408385031215612bcc57600080fd5b8235612bd781612484565b91506020830135612be781612484565b809150509250929050565b600080600060608486031215612c0757600080fd5b8335612c1281612484565b92506020840135612c2281612484565b91506040840135612c3281612484565b809150509250925092565b600080600060608486031215612c5257600080fd5b8335612c5d81612484565b92506020840135612c6d81612484565b929592945050506040919091013590565b602080825260059082015264475332303360d81b604082015260600190565b60208082526005908201526411d4cc8c0d60da1b604082015260600190565b634e487b7160e01b600052601160045260246000fd5b6000600019821415612ce657612ce6612cbc565b5060010190565b604081526000612d006040830185612683565b8281036020840152611fd48185612683565b600060208284031215612d2457600080fd5b81516001600160e01b031981168114611f7257600080fd5b600060ff821660ff841680821015612d5657612d56612cbc565b90039392505050565b6000816000190483118215151615612d7957612d79612cbc565b500290565b602080825260059082015264475332303160d81b604082015260600190565b634e487b7160e01b600052602160045260246000fd5b60028110612dd157634e487b7160e01b600052602160045260246000fd5b9052565b6001600160a01b038d168152602081018c90526101606040820181905281018a905260006101808b8d828501376000838d01820152601f8c01601f19168301612e21606085018d612db3565b8a60808501528960a08501528860c0850152612e4860e08501896001600160a01b03169052565b6001600160a01b0387166101008501528184820301610120850152612e6f82820187612683565b92505050612e896101408301846001600160a01b03169052565b9d9c50505050505050505050505050565b60008219821115612ead57612ead612cbc565b500190565b600082612ecf57634e487b7160e01b600052601260045260246000fd5b500490565b600082821015612ee657612ee6612cbc565b500390565b634e487b7160e01b600052603260045260246000fd5b6080808252810185905260008660a08301825b88811015612f44578235612f2781612484565b6001600160a01b0316825260209283019290910190600101612f14565b50602084019690965250506001600160a01b039283166040820152911660609091015292915050565b8183823760009101908152919050565b8b81526001600160a01b038b81166020830152604082018b9052606082018a9052610160820190612fb1608084018b612db3565b60a083019890985260c082019690965260e0810194909452918516610100840152909316610120820152610140019190915295945050505050565b600081612ffb57612ffb612cbc565b50600019019056fea264697066735822122089190f8d434e3995a83bd49cf58388314a96cbf498481df1d9623cb4a99d77c264736f6c63430008090033",
  "linkReferences": {},
  "deployedLinkReferences": {}
}